:10000000E804002079050000210C00004D050000E7
:100010004D0500004D0500004D0500004D05000098
:10002000000000000000000000000000FD020000D1
:100030004D050000000000004D0500004D050000CA
:100040005903000059030000590300005903000040
:100050005903000059030000590300005903000030
:100060005903000059030000590300005903000020
:100070005903000059030000590300005903000010
:100080005903000059030000590300005903000000
:1000900059030000590300005903000059030000F0
:1000A00059030000590300005903000059030000E0
:1000B00059030000590300005903000059030000D0
:1000C00059030000590300005903000059030000C0
:1000D00059030000590300005903000059030000B0
:1000E00059030000590300005903000059030000A0
:1000F0005903000059030000590300005903000090
:10010000590300005903000059030000590300007F
:10011000590300005903000059030000590300006F
:10012000590300005903000059030000590300005F
:10013000590300005903000059030000590300004F
:10014000590300005903000059030000590300003F
:100150005903000002234FF080500A4A03F1800146
:100160000133202B42F82100F8D100234FF08050BA
:10017000054A03F180010133102B42F82100F8D128
:10018000002070470025845000288450144A1369C9
:1001900003F00703072B22D10121124BC3F80415EA
:1001A000D3F800140029FBD0116921F0070141F0B8
:1001B000030111610022C3F804250A4AD2F8003471
:1001C000002BFBD0BFF34F8F0749084BCA6802F4DE
:1001D000E0621343CB60BFF34F8F00BFFDE7704772
:1001E0000080FF000090035000ED00E00400FA05DD
:1001F00008B5FFF7CBFF0249024800F0E9FC00BF59
:100200007016085000160850094B0A4900F01F02EA
:100210004009012808BF0B4603EB8203D3F80022F4
:1002200022F0E04242F04052C3F80022704700BF83
:10023000002584500028845070B54FF02003EFF360
:10024000118683F31288BFF36F8F01240C4B0D4D81
:10025000C3F8004502230020C5F8D036FFF7D4FFCD
:100260002046FFF7D1FFC5F80447C5F80449C5F893
:10027000004B86F31188BFF36F8F002070BD00BF65
:100280000010005000400050014800F0B1BB00BF1A
:10029000F00E0000014910220A60704710ED00E0E6
:1002A00072B6404080F31188BFF36F8FBFF34F8F5A
:1002B00030BF62B6BFF36F8F704700BF30BFFFF72C
:1002C000FDBF00BF0B4A08B50B4B22F07F029A60BE
:1002D000BFF34F8FBFF36F8FD3F8882022F47002E3
:1002E000C3F8882000F0BCFA00F0FAFA00F038F900
:1002F00000F0C0FA0000000000ED00E01EF0040F66
:100300000CBFEFF30880EFF30980816911F8021C3C
:100310000229FFD001B500F07BFC01BD0446084670
:1003200011461A46002383F30B880A4B2025A3F5B8
:10033000806686F30B8883F3098863B64FF0000369
:1003400083F31188BFF36F8FA04785F31188BFF344
:100350006F8FFEE7E804002001B5EFF30580A0F100
:1003600010004FEAC0000449014409C99847BDE89C
:100370000140024908470000C80C0000810300004A
:10038000704700BF0E4B9A6A9A6A9A6A920708D51C
:100390005A6B9A6A120604D518B19A6A22F0800242
:1003A0009A620020064B9A6A9A6A9A6AD20658BFE5
:1003B0009A6A9A6A42F0FF029A620870704700BF18
:1003C00000ED00E00D4B9A6A9A6A9A6A920507D589
:1003D0009A6A120404D518B19A6A22F400429A6209
:1003E0000020064B9A6A9A6AD20558BF9A6A9A6A9E
:1003F00042F47F429A620870704700BF00ED00E04F
:10040000094B9A6A9A6A986A9A6A9A6A9A6A9A6A7E
:100410009A6A10F480106FEA02426FEA124218BF23
:1004200002209A62704700BF00ED00E070B53E4BBD
:100430000E465B6800258AB0C3F3080385F3118874
:10044000BFF36F8F02F07F41B1F17F4F11D102F006
:100450000C0108290DD0120701D4064601250022FF
:10046000033B8DF80720032B56D8DFE803F0044D3B
:10047000514A2E46F3E72C4BDC6A14F002044BD1B0
:10048000DA6A002A17DBDB6A5B0014D5B36933F83C
:10049000022C4DF602739A420CD003F1604303F62E
:1004A00026631B78FBB101200DF10701FFF76AFFFE
:1004B000044600E034689DF8073093B920223146A5
:1004C00002A800F0B4FB099B45B3C3F3080222B9AC
:1004D0006FEA53236FEA43230993204602A900F0F1
:1004E00095FB0AB070BD114B1B782BB101200DF1AB
:1004F0000701FFF767FFDBE70D4B1B889BB2002B63
:10050000D9D0FFF77DFFD3E700200DF10701CDE73C
:1005100000200DF10701ECE70024CCE723F4FF7382
:1005200023F00103D8E700BF00ED00E029ED00E073
:100530002AED00E0044B5A6942F010025A615A69F0
:1005400042F480625A61704700ED00E0EFF30880EA
:10055000EFF3098101B57246FFF768FF01BD00BFE7
:10056000002320210348C2180133452B82F80013D1
:10057000F9D1704700E100E0002080F31488BFF358
:100580006F8F002080F30A8880F30B8800F086FBD1
:1005900000200E490860BFF34F8F0D4880F3088894
:1005A00000F03CF8202080F311880A484FF40061E5
:1005B000401880F30988EFF314800221084380F388
:1005C0001488BFF36F8FFFF77DFE000094ED00E00D
:1005D000E8040020E8040020BFF34F8F0549064BD4
:1005E000CA6802F4E0621343CB60BFF34F8F00BFD1
:1005F000FDE700BF00ED00E00400FA050023184607
:10060000054A1168C1F307218B4200D170479360FE
:1006100010610133F8E700BF90ED00E010B572B64D
:10062000002484F31388FFF7E9FF0E4A234611469E
:100630004FF0FF3403F120000133102B42F820402B
:10064000F8D100234FF0FF3003F160020133102B8B
:1006500041F82200F8D162B6BFF34F8FBFF36F8F1E
:1006600010BD00BF00E100E0094B0A4900F01F0285
:100670004009012808BF0B4603EB8203D3F8002290
:1006800022F0E04242F08052C3F80022704700BFDF
:10069000002584500028845008B52120FFF7E4FF8E
:1006A0002020FFF7E1FF0B20FFF7DEFF0A20FFF716
:1006B000DBFF1022044B0020C3F840244FF05023EE
:1006C000C3F8140608BD00BF00300050064B1A687E
:1006D0000433072A1B6805D1023B032B02D8034AC7
:1006E000D05C7047002070473001FF00970F00007A
:1006F0004FF05023D3F85825034B02F00302D340A8
:10070000024A1360704700BF0020A10700000020CC
:1007100008B5FFF7DBFF48B13A4B1A6832B90D2133
:1007200019600121A3F5827319601A600022D300B9
:1007300003F57F03D3F80013013107D0D3F800137A
:100740000132D3F80433202A0B60F0D1FFF7BEFF4B
:10075000002850D1FFF7BAFF38B12B4B2B4A1A6053
:100760004FF050230122C3F85825294B1A6804334F
:10077000072A1B6808D1023B032B05D8254AD35C06
:1007800013B10022244B1A60FFF7A0FF50B14FF0C5
:100790005023D3F80024D10742BF0022C3F814210C
:1007A000C3F818211A4B1D4A1B681268072B09D180
:1007B0004FF05023D3F80024D20744BF6FF001025A
:1007C000C3F80024FFF782FF10B16522144B1A60B2
:1007D000144AD2F88C3043F44063C2F88C30124A89
:1007E000124B1168C3F84415D269C3F84C25BDE813
:1007F0000840FFF77DBF2922094B1A6003221A63C4
:10080000A8E700BF204A0050309503504400EFBED7
:100810003001FF009B0F00004C2503503401FF0006
:100820000C47005000ED00E00080FF000060005029
:10083000012208B5084B02201A7000F06BF800F096
:1008400029FA032000F066F8FFF7D2FC034A137B75
:1008500023F00103137308BDE000002064000020B2
:100860000248034A0021121A00F0ECB9640000208B
:10087000E400002008B5174B03F5006282F30888F6
:1008800083F30A880025E023134C84F82230E577AF
:1008900025766576A57684F82050636A43F4E023D4
:1008A000636284F82350FFF745FEFFF7F3FC4FF037
:1008B000FF33A362E36200F0EEF9284600F02AF865
:1008C000012000F027F82B462A4629460348FFF767
:1008D00025FD00BFE804002000ED00E03108000025
:1008E00008B50648064A0749121A00F0A0F9BDE803
:1008F0000840054A0549064800F099B90000002063
:1009000064000020A00F000000000000A00F000005
:10091000000000200E4B70B553F82040013053F812
:100920002060A64200D870BDD4E90035284698471B
:1009300065B1EB6830B10028B8BF4042FF28A8BFBE
:10094000FF2018705A7842F001025A700834E8E724
:10095000F80E000010B50A4C23681BB101230020DB
:10096000236010BD00F04CF80028F7D001380728AC
:1009700003D8044B53F8200010BD034810BD00BF3E
:10098000C80000200C0F0000FE8FFFFFBFF34F8F49
:100990000549064BCA6802F4E0621343CB60BFF31B
:1009A0004F8F00BFFDE700BF00ED00E00400FA0537
:1009B0004FF0FE33002130B4084A094C094D236042
:1009C0002B601360E360EB60D360A361064A074CC1
:1009D000AB616368C2F8001530BC184708548450F6
:1009E000005484500454845000408450040000207B
:1009F000024BD0E90012C3E9001270470400002046
:100A000008B500F00FF828B900F00EF830B9044A24
:100A1000106008BD00F036F8032008BD042008BDB2
:100A20000C5A84500020704710B5114800F048F867
:100A300000B110BD0F4800F043F80028F9D10E4C6A
:100A4000204600F03DF80028F3D10C4B0C481C6008
:100A500000F036F801460028EBD100F02DF80446EE
:100A600008B1204610BD00F03FF82046FAE700BF6D
:100A7000180000200C000020140000201C000020A2
:100A80001000002008B5084800F024F8074800F0DE
:100A900021F8074800F01EF8064800F01BF8BDE8F2
:100AA000084000F00BB800BF180000200C00002028
:100AB000140000201000002000207047704700BF85
:100AC00008B5034B02681B6810689847002008BDF2
:100AD0002800002008B5034B02685B68106898473F
:100AE000002008BD2800002070B5094C094D206980
:100AF000AB68984718B1084B08485B6898470021D5
:100B0000074AEB6811602069BDE87040184700BFD4
:100B10003800002028000020040000202C0F0000D6
:100B2000CC00002010B5044630B16368DB0602D566
:100B300000232360636010BD024B03485B68984745
:100B4000F3E700BF040000204C0F000068B14368C9
:100B50003BB1DB0607D5BFF35F8F00230360184668
:100B6000704703487047034870476FF4E040704790
:100B7000EA8FFFFFE98FFFFF10B5044620B1002286
:100B800011232260636010BD0148FFF711FFF6E7F3
:100B9000740F0000A0B1436883B1DB060CD50122BD
:100BA000D0E8EF3FC0E8E12F0029F9D1012BF7D0C1
:100BB000BFF35F8F002070470348704703487047BA
:100BC0006FF4E040704700BFE98FFFFFEA8FFFFF3F
:100BD00072B6002340F8103B8842FBD9BFF34F8F19
:100BE00030BFFDE708B54FF02002EFF3118382F329
:100BF0001288BFF36F8FFFF7EFFCFFF751FBFCE7A5
:100C00007047002008B5FFF7EDFF704700F032B8DD
:100C10000146006800F02EB800210120FFF7F6BF62
:100C200008B5FFF74BFBBDE80840FFF7A9BB10B5BF
:100C3000431E0A44914200D110BD11F8014B03F844
:100C4000014FF7E70346C9B20244934200D170470F
:100C500003F8011BF9E7002008B5FFF7BDFCFFF71B
:100C600079BE08B5FFF710FBFFF7CFFFBDE80840DE
:100C7000FFF770BE10B54FF02003EFF3118483F33C
:100C80001288BFF36F8FFFF7E6FF84F31188BFF37D
:100C90006F8F10BD7047704770470000FFF738BD79
:100CA00039020000000000005501000000000000B3
:100CB0005F0C000000000000630C0000000000005A
:100CC000990600000000000000000000190C000060
:100CD00000000000190C000000000000190C0000CA
:100CE00000000000190C000000000000190C0000BA
:100CF00000000000190C000000000000190C0000AA
:100D000000000000190C000000000000190C000099
:100D100000000000190C000000000000190C000089
:100D200000000000190C000000000000190C000079
:100D300000000000190C000000000000190C000069
:100D400000000000190C000000000000190C000059
:100D500000000000190C000000000000190C000049
:100D600000000000190C000000000000190C000039
:100D700000000000190C000000000000190C000029
:100D800000000000190C000000000000190C000019
:100D900000000000190C000000000000190C000009
:100DA00000000000190C000000000000190C0000F9
:100DB00000000000190C000000000000190C0000E9
:100DC00000000000190C000000000000190C0000D9
:100DD00000000000190C000000000000190C0000C9
:100DE00000000000190C000000000000190C0000B9
:100DF00000000000190C000000000000190C0000A9
:100E000000000000190C000000000000190C000098
:100E100000000000190C000000000000190C000088
:100E200000000000190C000000000000190C000078
:100E300000000000190C000000000000190C000068
:100E400000000000190C000000000000190C000058
:100E500000000000190C000000000000190C000048
:100E600000000000190C000000000000190C000038
:100E700000000000190C000000000000190C000028
:100E800000000000190C000000000000190C000018
:100E900000000000190C000000000000190C000008
:100EA00000000000190C000000000000190C0000F8
:100EB00000000000190C000000000000190C0000E8
:100EC00000000000190C000000000000190C0000D8
:100ED00000000000190C000000000000190C0000C8
:100EE00000000000190C000000000000190C0000B8
:100EF00000000000030C0000A00C0000B80C000073
:100F0000B80C0000C80C0000C80C0000FF8FFFFFE9
:100F1000FF8FFFFFFE8FFFFFFE8FFFFFFD8FFFFFA5
:100F2000FC8FFFFFFC8FFFFFFB8FFFFF436F756C94
:100F300064206E6F74206C6F636B20706F776572C6
:100F40002073617665206D75746578006D757465C4
:100F5000785F667265652063616C6C656420776993
:100F60007468204E554C4C20706172616D657465DB
:100F70007200000043616E277420696E69746961B4
:100F80006C697A65206D757465782C2077617320A3
:100F90004E554C4C0D0A00010000000101000000FC
:100FA0000090D003000000008D0900003C000020EC
:100FB00048000020400000203800002014000020DD
:100FC000D000002011000000790B0000250B00006C
:100FD000950B00004D0B00005C000020200000205D
:100FE00054000020000000004C000020D40000202D
:100FF00011000000D800002011000000DC000020DB
:0410000011000000DB
:00000001FF
