:020000040100F9
:1000000088100021FD2B00017D7E0001B52B000131
:10001000B52B0001B52B0001B52B0001000000003D
:100020000000000000000000000000005528000152
:10003000B52B000100000000F9270001B52B0001DD
:10004000E1280001E1280001E1280001E128000188
:10005000E1280001E1280001E1280001E128000178
:10006000E1280001E1280001E1280001E128000168
:10007000E1280001E1280001E1280001E128000158
:10008000E1280001E1280001E1280001E128000148
:10009000E1280001E1280001E1280001E128000138
:1000A000E1280001E1280001E1280001E128000128
:1000B000E1280001E128000153B94AB9002908BF2D
:1000C00000281CBF4FF0FF314FF0FF3000F070B937
:1000D000ADF1080C6DE904CE00F006F8DDF804E09F
:1000E000DDE9022304B070472DE9F047089E0D4674
:1000F00004468A46002B7FD18A42174641D9B2FA7C
:1001000082F24AB1C2F1200105FA02F3974094400D
:1001100020FA01F141EA030A4FEA17484FEA144C6A
:100120001FFA87F9BAFBF8FE08FB1EA30EFB09F1C4
:100130004CEA0343994206D9FB1802D2994200F2D5
:1001400024810EF1FF3E591AA3B2B1FBF8F008FB6F
:10015000101100FB09F943EA0144A14505D93C19F6
:1001600002D2A14500F20E810138A4EB090440EA55
:100170000E4000211EB1D4400023C6E90043BDE873
:10018000F08702B9FFDEB2FA82F2002A4FD1CB1B10
:100190004FEA174E1FFA87F80121250CB3FBFEFC2E
:1001A0000EFB1C302B4608FB0CF945EA0045A9451F
:1001B0000AD97D192CBF01230023A94502D9002BA0
:1001C00000F0D9800CF1FF3CA5EB0905A3B2B5FB0B
:1001D000FEF00EFB105508FB00F843EA0544A0456D
:1001E00005D93C1902D2A04500F2C9800138A4EB20
:1001F000080440EA0C40BDE78B4208D9002E00F00D
:10020000B1800021C6E900050846BDE8F087B3FAD1
:1002100083F1002946D1AB42C0F0A780824240F270
:10022000A4800846002EAAD0C6E9004AA7E7C2F17A
:100230002000974001FA02F34FEA174EC14024FA1A
:1002400000F51FFA87F894401D43B1FBFEF02B0C1C
:100250000EFB101100FB08FC43EA01439C4509D941
:10026000FB182CBF012100219C4502D9002900F078
:1002700095800138A3EB0C03ADB2B3FBFEF10EFB8E
:10028000113301FB08FC45EA0345AC4505D97D194E
:1002900002D2AC4500F289800139A5EB0C0341EA9A
:1002A00000417AE7C1F120048B4002FA01F705FA18
:1002B00001FCE24020FA04F8E54000FA01FE134395
:1002C00048EA0C024FEA13484FEA124C1FFA83F92E
:1002D000B5FBF8FA08FB1A550AFB09F04CEA054C85
:1002E00060450AD913EB0C0C2CBF01250025604595
:1002F00001D9002D55D00AF1FF3AACEB000C92B2B7
:10030000BCFBF8F008FB10CC00FB09F942EA0C4CEE
:10031000E14505D913EB0C0C01D2E1453BD801387E
:1003200040EA0A40ACEB090CA0FB0789CC454546E6
:100330004A4602D306D1C64504D20138B8EB0705B8
:1003400069EB03022EB3BEEB05036CEB020C23FA40
:1003500001F20CFA04F42CFA01F300211443C6E96B
:1003600000430CE73146304609E7841A65EB030386
:1003700001209A4656E7ACF1020C3D4424E70238CE
:100380003C4434E702383C44EFE6AEF1020E3B4415
:10039000D9E63146F3E602389C44C1E702383B44D3
:1003A00068E7AAF1020A9C44A7E702393D4474E7D2
:1003B000704700BF2DE9F04782B000255E4807F086
:1003C000E3FB5E4805F0FCFC044630B101F038F870
:1003D000014630B94FF000090DE0594807F0D4FB51
:1003E000F4E7584807F0D0FBF4E76FF057010EE050
:1003F000554807F0C9FB01F04BF8A3681B68002BB8
:10040000F3D00DF1070120469847014618B1B1F12C
:10041000FF3FF0D0ECE7B9F1000F48D008F024FB23
:100420004B01420143EAD06C131A6CEB01024FEA14
:10043000820C4CEA937C4FEA830E62461EEB00036B
:1004400041EB0202D10041EA5371D800C30B43EAE9
:100450004142C80BB2EB080660EB0A07062E77F1A3
:10046000000347DA9DF807301D432946374807F057
:100470008BFB284601F026F801A801F083F881469D
:100480000028B8D0BDF80410314807F07DFBBDF856
:100490000410090AA3685B68204698479DF8041079
:1004A000A3685B68204698474FF00009A3E79DF8D2
:1004B00007502D0208F0D8FA4B01420143EAD06CF4
:1004C000131A6CEB01024FEA820C4CEA937C4FEA60
:1004D000830E62461EEB000341EB0202D10041EAAB
:1004E0005371D800C30B43EA41484FEAD13A4FF069
:1004F000010980E79DF807502D0208F0B5FA4B017D
:10050000420143EAD06C131A6CEB01024FEA820CF1
:100510004CEA937C4FEA830E62461EEB000341EBEC
:100520000202D10041EA5371D800C30B43EA4148AB
:100530004FEAD13A5FE700BF988C0001BC8C000104
:10054000C48C0001F08C0001188D0001308D000179
:100550004C8D0001024B0122C3F82C29704700BFCB
:1005600000800041184B0122C3F82829C3F828292C
:10057000164B93F84A3213B193420DD070470123C2
:10058000124A92F84D249A4205D30F4AC2F82839EC
:1005900001339BB2F4E7704701220C4B93F84D34C2
:1005A00099B2914205D3084BC3F82829013292B27F
:1005B000F3E7013B9BB204E0034AC2F82839013B50
:1005C0009BB2002BF8D17047008000410000002151
:1005D00010B4042906D021B3052924D0062925D03A
:1005E000002300E05823C400052922D0062922D088
:1005F0001C44042921D0124B93F848322BB10C44EF
:100600000F4B93F84C3404EBC3040023013340F246
:10061000712000FB03F004F1F9028242F6D810BC0D
:1006200070475023DFE74FF43473DCE74FF4E77390
:10063000D9E78401DAE76400DAE76408DBE700BFA2
:1006400000000021032801D800207047024B01223E
:100650005A800420704700BF00000021032805D8FD
:10066000054B40F2F6325A8000207047024B0122BF
:100670005A800420704700BF00000021032805D8DD
:10068000184B4FF4FF725A8000207047031FDBB2F3
:10069000032B05D8134B40F648025A8000207047C0
:1006A000A0F10803DBB2032B05D80E4B4FF4FF7209
:1006B0005A8000207047A0F10C03DBB2032B05D851
:1006C000084B40F648025A8000207047102804D199
:1006D000044B28225A8000207047024B01225A8086
:1006E0000420704700000021820900F01F03174911
:1006F00081F84C3481F84E04023BDBB2122B09D84E
:10070000012A11D0022A17D042B1104B01225A807F
:100710000420704701224A80042070470B4B0322BB
:1007200083F8482200207047084B022283F84822B1
:1007300083F8492200207047044B022283F84822A4
:10074000012283F849220020704700BF00000021E9
:10075000012806D002280AD0074B01225A80042023
:100760007047054B022283F8492200207047024B54
:10077000012283F84922EFE70000002100F03F0347
:10078000084A82F84D3400F0800082F84A02013BAA
:10079000DBB20B2B01D800207047134601225A8090
:1007A0000420704700000021094AD2F80C0202F12F
:1007B0000801884214BF00230123D90119444B00CA
:1007C00008331344C2F80C32024AC2F804357047A9
:1007D000000000210080004110B584B0002002F02C
:1007E00057FEB0B10023019303930123029369469E
:1007F00001F0A0F9041E12DB029B13F0030F13D1CA
:10080000039C9CB121460B4807F0BEF9204604B07A
:1008100010BD094807F0B8F96FF00504F6E7214666
:10082000064807F0B1F9F1E76FF00A04002CE3D1B4
:10083000ECE700BFA88D0001688D00018C8D0001E0
:10084000F0B585B000230293039304238DF808309C
:100850001F4A02A91F4805F0F5F81F4B984222D104
:10086000002203210C2001F067FF1C4BD3F8243237
:10087000D3F81035DBB242F2107222FA03F60027E9
:10088000012F08BF002E15D2124D00240094012321
:1008900032462146284607F0EBFF284605F06AF964
:1008A000204605B0F0BD01460D4807F06DF96FF028
:1008B0000A00F6E70B4C40F20F3221460A4807F0D7
:1008C00063F940F20F31204607F0B7FADCE700BFCA
:1008D000017B0001240200210000AD0B000000217B
:1008E000C88D0001EC8D0001208E000138B5074C49
:1008F00004F50B75284605F065F9284605F088F9DA
:1009000004F50D7005F06CFD38BD00BF000000213E
:1009100008B5074804F0FAF8064B984201D10020C8
:1009200008BD0146044807F02FF96FF00A00F7E709
:100930005C0400210000AD0B388E000110B5C4B27C
:1009400010F0300F01D044F0C004094B1B78012B8C
:1009500001D9002010BD064B93F84512204600F047
:100960001BFE0028F6D0024B83F84642F2E700BF98
:100970000000002110B5124B93F85C34012202FAFA
:1009800003F31049C1F8083500210F4BC3F80012DA
:1009900003F5887319601B680C4B1A600C4B1B68BD
:1009A000002BFBD00A4B00241C601B68082001F0C0
:1009B000A1FE054B0B22C3F80823014BDC8010BDC0
:1009C0000000002100F00041008000411080004143
:1009D0001081004170B584B0544B93F8451293F8E0
:1009E000460200F0D9FD002800F08F80FFF7C2FF1B
:1009F0004E4D95F846224E4BC3F80C2595F84522EE
:100A0000C3F81025D5F82022110EC3F824151202C0
:100A1000C3F81C250126C3F830650024C3F82C4513
:100A2000444AC3F83C2540F20312C3F8342540F28F
:100A30005B62C3F838250D222146684607F00DFB9E
:100A40008DF801608DF8024008238DF8003095F88C
:100A50001C328DF805308DF80C408DF80B400323C7
:100A60008DF80A308DF80940FF238DF8083095F88D
:100A70004532033BDBB2B34205D903238DF807307F
:100A800002238DF804309DF800309DF8012043EAE0
:100A900002239DF8022043EA02439DF80320002A26
:100AA0003CD04FF4801213439DF8042043EA825354
:100AB0009DF8052043EA02639DF8062082B34FF0BB
:100AC000806213439DF8072043EA4273184AC2F834
:100AD00014359DF808309DF8092043EA02239DF85B
:100AE0000A2043EA02439DF80B20DAB14FF08072EE
:100AF00013439DF80C20BAB14FF0007213430C4A17
:100B0000C2F81835002004B070BD0B4807F03CF85F
:100B1000064B01225A806FF01500F4E70022C2E76D
:100B20000022CEE70022E3E70022E7E700000021F1
:100B300000800041555555005C8E000108B5031F2B
:100B4000DBB2032B12D9A0F10803DBB2032B18D9B7
:100B5000A0F10C03DBB2032B1ED91038C0B203285E
:100B600025D9184B01225A80042008BD154B0322B9
:100B700083F84522002283F81C22FFF72BFFC0B226
:100B8000F3E7104B042283F84522012283F81C224C
:100B9000FFF720FFC0B2E8E70A4B052283F84522A1
:100BA000032283F81C22FFF715FFC0B2DDE7054BD7
:100BB000062283F84522032283F81C22FFF70AFF4E
:100BC000C0B2D2E700000021F8B50446057805F070
:100BD0000F054678334B93F84832BBB10327314BAE
:100BE00093F84502C31EDBB2012B01D8022D4DD86C
:100BF00006F087FF08B1042D4AD84DB1022D1BD055
:100C0000042D1BD0012D0CD00020F8BD0227E6E7F3
:100C100032462549E01907F0E5F9B0FA80F04009BD
:100C2000F3E70F2100239E420AD99A1CA25C8A4254
:100C300030D10133DBB2F6E75521F3E7FF21F1E7CD
:100C4000184B93F848323BB3A678164A92F84C34C6
:100C5000DB0092F84922022A00D0042293FBF2F32F
:100C600008335CB2114BD3F858790E4D4FF4007233
:100C7000002105F5137007F0F0F995F84832B342FA
:100C80000CD17FB2BC420BD10120BEE70020BCE7F3
:100C90000020BAE70020B8E70120B6E70020B4E75B
:100CA0000020B2E7000000210C8F0001008000410D
:100CB000104B1B78042B00D0704710B5FFF774FD64
:100CC00004460D4B01221A60043BD3F8003413F0A4
:100CD000010F06D14FF481720021204607F0BDF9C3
:100CE00010BDFFF771FF0028F4D0024AD38801330A
:100CF000D380EFE7000000210480004108B50F4BCE
:100D00001B681BB10D4B00221A601B680C4B1B6843
:100D10003BB90C4B1B681BB10A4B00221A601B68C5
:100D200008BD074B00221A601B68074B4FF4807206
:100D3000C3F88021FFF7BCFFEBE700BF048100414F
:100D40000C8100410081004100E100E070B50446E3
:100D500006F0E5FE064600F03DFC7E2C1BD0054665
:100D60007F2C24D004F17F03DBB2932B2BD806F029
:100D7000D2FE40B2A04245DA06F0CFFE40B2A04219
:100D80004CDD0123B34269D255F823104AB2A24286
:100D900050DC0133F6E706F0BEFEC0B2354B83F8F7
:100DA0004602400040F40070588000205CE006F0ED
:100DB000B4FEC0B22F4B83F84602400040F480607E
:100DC0005880002050E02B4A92F84642630043F0DE
:100DD0000103538006F09FFE844206D1254A5388C2
:100DE00043F40073538004203EE0224B93F84642C4
:100DF00006F093FE8442F6D11E4A538843F4806382
:100E00005380F0E706F087FEC0B21A4B83F8460223
:100E1000400040F400705880002025E006F07DFE80
:100E2000C0B2144B83F84602400040F48060588002
:100E3000002019E0121B002AB8BF524252B203F13F
:100E40008043013B55F8230043B21C1B002CB8BF64
:100E50006442A24209DA074B83F84612054A92F827
:100E600046325B005380002070BD024B83F846027F
:100E7000F4E700BF0000002138B500F0AFFB0546E5
:100E8000002406F04EFE844209D255F8241004F5E1
:100E90001372034B43F822100134E4B2F1E738BD7A
:100EA0000080004110B5044620B12F4B93F8483222
:100EB000032B05D0C4B92C4B93F84832022B13D125
:100EC000FFF7DAFFFFF74EFB284BD3F8102922F487
:100ED000E062C3F81029D3F81029234991F8491288
:100EE00042EA0122C3F810291F4B93F848221F4BF6
:100EF000C3F80029D3F8142542F40022C3F81425BE
:100F0000DCB1D3F8042942F00102C3F80429D3F874
:100F1000042942F00802C3F80429D3F8042942F056
:100F2000005242F40012C3F80429114AC3F85029B0
:100F30004FF40072C3F8542910BD0C4BD3F80429A8
:100F400022F00102C3F80429D3F8102922F03F024D
:100F5000C3F81029D3F81029034991F84C140A4317
:100F6000C3F81029E8E700BF00000021008000411D
:100F70004C02002170B50546364B93F84832002BE1
:100F80003FD1344BD3F818426400A4B204F6621483
:100F9000A4B240F6C4139C4236D840F637139C42A4
:100FA0003FD9B4F5166F49D2A4F6381444F48074CE
:100FB000294AC2F80845274BD3F80C12C2F8041589
:100FC00002F5807200211160126893F84832002BFC
:100FD00037D10323204CC4F80032204B4FF48072E9
:100FE000C3F88021082001F075FB0B23C4F80433FB
:100FF0004DB31B4B00221A601B681A4B01221A606A
:1010000070BDFFF74FFFBCE7174E4FF4BF6231468C
:10101000164806F0B9FD4FF4BF61304606F00DFFEB
:10102000BBE7114E40F2FB523146104806F0ACFDD2
:1010300040F2FB51304606F000FFB2E7A4F516641B
:10104000B6E70B4BC6E7034B93F84622024BC3F8B7
:101050000C25D5E7000000210080004100E100E000
:101060000C810041048000418C8E0001208E000123
:101070000100100010B5084C04F10800C4F80C027F
:101080004FF40172002106F0E8FF0120FFF772FF24
:1010900004232370002010BD0000002108B50128A2
:1010A00009D9022805D10846FFF748FCA0B1002065
:1010B00000E0002008BD0020FFF75CFF094B4FF463
:1010C0000072C3F850260122C3F800221A60064BB2
:1010D00003221A700020EDE7034B01225A800420FE
:1010E000E8E700BF008000410000002138B5124A47
:1010F00092F85C1401238B401049C1F80835D2F8EE
:10110000244214F5A0740AD00023C4F880300C4A9D
:101110001360FFF72FFC084B01221A7038BD094DF0
:101120004FF417722946084806F02EFD4FF4177148
:10113000284606F082FEE7E70000002100F00041AB
:1011400080800041C08E0001208E000108B50A4B4E
:101150001B78012B0AD0084AD3886FEA43436FEA11
:1011600053435380FFF7C2FF002008BD024B01220A
:101170005A800220F9E700BF0000002138B504467C
:101180000D46FFF7B3FF092C5AD8DFE804F0052617
:1011900035393D414A4F5445032D19D82B4800217C
:1011A000C0F81012032380F8453280F81C12C0F8F2
:1011B0005414FF23C0F858344FF4027200F5127033
:1011C00006F04BFFFFF7C6F9FFF704FC204616E0D8
:1011D0001E4B01225A80042011E00F2D07D829014F
:1011E00001F0C001194BC3F81012002007E0174BA3
:1011F00001225A80042002E02846FFF79FFC38BDF8
:101200002846FFF71FFAFAE72846FFF727FAF6E71E
:101210002846FFF733FAF2E768B2FFF797FDC0B24E
:10122000EDE72846FFF760FAC0B2E8E72846FFF787
:101230008FFAC0B2E3E72846FFF7A0FAC0B2DEE7B4
:10124000024B01225A800420D9E700BF0000002190
:101250004D4B03F10802C3F80C22D3F81432FE2BD5
:1012600004D0083AD2F81022FF2A19D870B5464A9D
:1012700092F84822CAB10325434CD4F81022627276
:10128000022B62D013D9FE2B68D0FF2B69D13E48C8
:10129000042300F8083FFF21284406F0DEFE1AE090
:1012A000394B01225A80032070470225E4E753B1ED
:1012B000012B56D13448012300F8083F0F21284460
:1012C00006F0CBFE07E03048002300F8083F2F4926
:1012D000284406F09EFE2C4B93F848325BB12A4B13
:1012E000D3F80C120A7842F020020A70D3F80C22CC
:1012F00093F84E3493700020FFF73CFE224C94F894
:101300004512D4F81002FFF763F90246002319468C
:1013100004F5097007F092FA94F85C54D4F824426A
:1013200014F5A07422D045F00045C4F88050184A46
:101330001560154A92F85C1401238B401549C1F8D9
:10134000043502231370002070BD0F48022300F8FB
:10135000083F5521284406F080FEBCE7FFF79EFEBB
:10136000F2E7094B01225A800420EDE70A4E4FF4C0
:1013700012723146094806F007FC4FF412713046EC
:1013800006F05BFDCFE700BF000000210C8F0001DD
:101390008080004100F00041C08E0001208E0001DD
:1013A00070B582B000230093019304238DF80030C0
:1013B0001C4A69461C4804F045FB1C4B98421CD152
:1013C00000220321182001F0B7F9194BD3F82C3271
:1013D000D3F81035DBB24FF4825222FA03F4002521
:1013E000012D08BF002C0FD20123224600210E48F8
:1013F00007F024FA002002B070BD01460D4806F047
:10140000C3FB6FF00A00F6E70B4E40F20F32314695
:101410000A4806F0B9FB40F20F31304606F00DFDE8
:10142000E2E700BFED0800012C0200210000AD0B37
:1014300000000021C88D0001EC8D0001208E00010C
:1014400008B5FFF7C9F900B108BDFFF7F9F90028A1
:10145000FAD1FFF7A5FF0028F6D1FFF759FA0028C7
:10146000F2D100220221082001F066F9082001F0E3
:1014700031F9FFF7AFFA0028E6D1044B01221A70C8
:1014800000221A71C3F81022DEE700BF000000211D
:1014900010B50A4C04F50B7004F06CFB4FF0FF32F2
:1014A0004FF0FF3304F50D7004F0D4FF00B910BD08
:1014B0000146034806F068FBF9E700BF0000002181
:1014C000F88E0001F8B5840B4FEA102CC0F3052606
:1014D000C0F38507C1B200F00303294A0125157145
:1014E000002555801078002847D0F4B1032C21D076
:1014F000012822D1224DD5F8102202F0C0023A4331
:10150000C5F81022C5F81432C5F81862032B19D09B
:10151000032B01D0272E24D8194B0022DA80012C6E
:1015200023D0022C24D00020F8BD0CF03F00FFF7A0
:1015300025FEF9E7FFF70AFEF6E7114B01225A8074
:101540000220F1E795F84522033AD2B2012A04D9E4
:101550000B4AFF21C2F81412DAE7FE21C5F8141273
:10156000D6E7074B01225A80DEE7FFF783FDDBE772
:1015700031463846FFF76CFED6E70520D4E700BFBA
:1015800000000021034B1A79002119715B88038048
:1015900010467047000000214B1FDBB2012B05D91C
:1015A00003290DD004290FD1002300E000230D2BC7
:1015B00008D8074A52F82320904207D00133F6E7B3
:1015C0000023F4E700207047002070470120704797
:1015D0002C900001004870472C9000010048704793
:1015E0000C90000138B50446436803F003038160A2
:1015F000022B03D9032B02D100680DE05BB9084D23
:1016000045222946074806F0BFFA4521284606F03C
:1016100014FC002000E000200023636038BD00BF00
:1016200064900001208E000108B50B6801330B6047
:10163000014B1B68984708BD60040021014B1860EE
:10164000704700BF6004002100B583B002460B461E
:101650000021019101A9034800F014FB03B05DF8DB
:1016600004FB00BF2916000110B584B004460190A8
:1016700002910021039101A9054800F003FB039B9F
:10168000029A934201DA0022E254039804B010BD9A
:10169000597B000138B504460D46838B002A13DBC5
:1016A00003F007035A1F012A1AD9042B4DD02D4CE1
:1016B00040F21B1221462C4806F066FA40F21B113C
:1016C000204606F0BAFB38BDD0E9000185E80300EA
:1016D0000023236063600121204606F071FAF2E7DF
:1016E000D0E9000185E80300002222606260062B39
:1016F0000FD0052B1CD10021204606F061FA2046B0
:1017000006F085FA0028DED0A38B43F02003A383E4
:10171000D9E72B683BB1E28B0132E283002BF9D091
:101720001B68002BF6D10221204606F049FAE6E7B5
:101730000C4D40F2091229460B4806F025FA40F2FA
:101740000911284606F079FBD5E7002106F038FAA2
:10175000204606F05CFA0028B5D0A38B43F02003A6
:10176000A383B0E788900001208E00012DE9F04F9F
:1017700083B004461646838B03F0070703F008087E
:101780000D4631B1B8F1000F11D100230093019340
:10179000A7E0DFF8149340F233124946C14806F03F
:1017A000F3F940F23311484606F047FBEAE7012D12
:1017B00013D0022D16D1A38B43F02003A38304F191
:1017C000140004F06DFC002800F0768186F3118887
:1017D000BFF36F8F03B0BDE8F08FA38B43F010030E
:1017E000A383ECE7B04D4FF49E722946AD4806F056
:1017F000CBF94FF49E71284606F01FFBDBE720462D
:1018000006F005FA05466EE0D4F818904A46694697
:101810002046FFF73FFF002510E0002F7FD123680F
:10182000002B00F0898023691D68002D00F0918055
:101830000621204606F0C4F94FF00009A38B03F0FF
:101840000708B84500F00081A268002A00F0FE8079
:10185000012217461AB9009A002A00F0F98043F0D5
:101860000803A38304F1140A504604F019FC00286D
:1018700000F0F28086F31188BFF36F8F002F40F0E5
:10188000F780009B2BB14B4642466946204606F046
:1018900000FA15B185492046A8474FF02003EFF321
:1018A000118683F31288BFF36F8F504604F0E8FB74
:1018B000002800F0E380504604F002FCA38B23F0E4
:1018C0000803A383A38B13F0100F00F0E28023F032
:1018D0001003A3830125A78B07F00707002D3FF412
:1018E0006EAF022D8BD0002D3FF469AF012D8BD050
:1018F000032D92D0042D3AD0052D40F09680012F73
:101900006BD12368002B75D023699D68002D7ED094
:101910000521204606F054F94FF000098EE7624D8C
:101920004FF4AB7229465F4806F02EF94FF4AB71C5
:10193000284606F082FA72E75B4D40F257122946BC
:10194000584806F021F940F25711284606F075FA7A
:1019500069E7DFF854814FF4AD724146514806F013
:1019600013F94FF4AD71404606F067FA60E7022FB5
:101970000BD1E38BB3B923695D6805B3042120461D
:1019800006F01EF94FF0000958E7474D40F25D128E
:101990002946444806F0F8F840F25D11284606F062
:1019A0004CFAE6E7404D4FF4AF7229463D4806F049
:1019B000EBF84FF4AF71284606F03FFADBE7DFF8AB
:1019C000E88040F261124146364806F0DDF840F208
:1019D0006111404606F031FAD0E7334D4FF4B27250
:1019E0002946304806F0D0F84FF4B271284606F088
:1019F00024FA86E72C4D40F265122946294806F064
:101A0000C3F840F26511284606F017FA7CE7DFF8C4
:101A100098804FF4B4724146224806F0B5F84FF46E
:101A2000B471404606F009FA72E71F4D40F26B129E
:101A300029461C4806F0A8F840F26B11284606F02B
:101A4000FCF90025A946F9E6002202E7002200E79A
:101A5000002D7FF404AF35E7DFF854B0AC225946CF
:101A6000104806F091F8AC21584606F0E6F901E777
:101A70004A464146204606F0ABF802E70C4D81226B
:101A80002946084806F080F88121284606F0D5F955
:101A900011E713F0200F0DD023F02003A3830225BC
:101AA00019E700BF208E000188900001D91A0001BB
:101AB000AC90000100250EE7054CAC2221460548FC
:101AC00006F062F8AC21204606F0B7F97EE600BFCA
:101AD000AC900001208E00012DE9F04104460D4636
:101AE00000F114064FF02003EFF3118783F31288FF
:101AF000BFF36F8F304604F0C3FA50B1304604F0A4
:101B0000DFFAA5613A4601212046FFF72FFEBDE826
:101B1000F081DFF81C8081224146044806F034F849
:101B20008121404606F089F9E8E700BF208E0001D8
:101B3000AC9000012DE9F0470446884606F080F895
:101B4000061E53DB04F114074FF02003EFF3118955
:101B500083F31288BFF36F8F384604F091FAE8B12F
:101B6000384604F0ADFAA58B05F00705E38B4FF678
:101B7000FF72934250D02E46022D1AD005B3042D89
:101B80001ED0062D1CD0052D4DD0012D31D16FF06A
:101B900004064FF0000A5346524617E0364D8122A4
:101BA0002946364805F0F0FF8121284606F045F920
:101BB000D6E70133E3834FF0010A00231A4605E01C
:101BC000B5FA85F35B094FF0000A012242B1002209
:101BD000C8F8002062686AB3C2F80080C4F80480C4
:101BE0006BB34A4602212046FFF7C0FD3046BDE8F0
:101BF000F087234E40F2C9123146204805F0C4FF59
:101C000040F2C911304606F018F96FF004064FF0A3
:101C1000000A53465246D9E76FF00A064FF0000A11
:101C200053465246D2E76FF085064FF0000A5346FE
:101C30005246CBE7C4F80480C4F80080D0E73846A9
:101C400004F02EFA68B189F31188BFF36F8FBAF1EF
:101C5000000FCBD000232A464146204606F006F866
:101C6000C4E7054FAC223946044805F08DFFAC218E
:101C7000384606F0E2F8E6E7AC900001208E00015D
:101C8000889000012DE9F04F93B006460D4692462C
:101C9000039300249AF80000002800F0D684252839
:101CA00008D00AF1010A2946B0470028C0F2CE84C4
:101CB0000134EFE70023069307930B9308930993EE
:101CC0000A930AF101089AF80130252B01D0012767
:101CD0002CE00AF102088DF82330A8E19DF82030AD
:101CE00043F004038DF82030FFB108F101081CE037
:101CF0009DF8203043F008038DF82030F4E79DF87C
:101D0000203043F010038DF82030EDE79DF82030AF
:101D100043F020038DF82030E6E79DF8203043F0B3
:101D200040038DF82030DFE700274FB398F80030EC
:101D3000203B102BF8D801A252F823F0FF1C000121
:101D4000291D0001291D00010D1D0001291D000193
:101D5000291D0001291D0001291D0001291D000167
:101D6000291D0001291D0001F11C0001291D000190
:101D7000DD1C0001291D0001291D00011B1D0001A2
:101D80009DF8203003F04403442B6DD0CDF814802F
:101D90009DF8203043F080038DF8203098F8003013
:101DA0002A2B68D005A805F0B1FF059B984512D0F5
:101DB0009DF8203043F080038DF820300990C3F364
:101DC0004003002860DB002213439DF8202063F3CA
:101DD00041028DF82020059B05931B782E2B14BF04
:101DE000002301239DF8212063F341028DF8212077
:101DF000002B4BD0059B5A1C05925B782A2B48D0B0
:101E000005A805F083FF0A909DF82030C3F3400336
:101E1000002847DB002213439DF8202063F3410292
:101E20008DF82020DDF8148098F800304C3B2E2BE4
:101E300000F2DC80DFE803F0CADADADADADADADADA
:101E4000DADADADADADADADADADADADADADADADAF2
:101E5000DADADADA38DA6ADA51DADADADADADADA7D
:101E6000C0DADADADADAB6009DF820306FF38613DA
:101E70008DF820308AE79DF8213043F001038DF87A
:101E8000213043460133A7E701229DE7DDF81480A6
:101E9000CAE79DF8213043F004038DF8213002F1A8
:101EA0000108C1E70122B6E708F1010298F8013004
:101EB000682B08D09DF82130022161F3C6038DF80C
:101EC000213090462BE09DF82130012262F3C603B9
:101ED0008DF8213008F1020821E008F1010298F89C
:101EE00001306C2B08D09DF82130032161F3C6032B
:101EF0008DF82130904612E09DF82130042262F3E3
:101F0000C6038DF8213008F1020808E09DF8213061
:101F1000052262F3C6038DF8213008F1010818F894
:101F2000013B8DF82330A3F14102372A00F25081A2
:101F3000DFE812F026014E014E014E012601260176
:101F400026014E014E014E014E014E014E014E0141
:101F50004E014E014E014E014E014E014E014E0109
:101F60004E0113014E014E014E014E014E014E0134
:101F70004E014E0126014E01130163002601260188
:101F800026014E0163004E014E014E014E012F010C
:101F900013013F014E014E013F014E0113014E015D
:101FA0004E0113019DF82130062262F3C6038DF81D
:101FB000213008F10108B2E79DF82130072262F3D1
:101FC000C6038DF8213008F10108A8E79DF82130FB
:101FD000082262F3C6038DF8213008F101089DF84C
:101FE000203043F002038DF8203098E79DF821302F
:101FF0006FF3C6038DF8213091E79DF8222001216F
:1020000061F302028DF822209DF8212002F078026F
:10201000402A00F0AA80632B00F0AE809DF82030AB
:10202000C3F34002174367F341038DF820309DF856
:10203000213013F0010F00F0DA80039B1A1D039288
:102040001F68002FC0F2CB809DF8213013F0040FE1
:1020500000F0DF80039B1A1D0392D3F800B0BBF1A0
:10206000000FC0F2CD80002309930A939DF822301F
:1020700003F007039DF82110C1F3C301012B00F009
:10208000D180022B00F01681042B00F06781032B16
:1020900000F07E819DF8209019F00303029340F038
:1020A0007D819DF82330253B532B00F23382DFE8FE
:1020B00013F0810131023102310231023102310269
:1020C0003102310231023102310231023102310278
:1020D0003102310231023102310231023102310268
:1020E0003102310231023102310231023102310258
:1020F0003102310231023102310231023102310248
:102100003102310231023102310231023102310237
:102110003102310231023102C70131023102310292
:102120003102310231023102310231023102A101A8
:10213000AB013102310231023102AB013102310215
:10214000310231020802C701EA01310231028F0176
:102150003102C70131023102C7019DF8222002215C
:1021600061F302028DF822204EE79DF8201041F025
:1021700001018DF820104EE7171E18BF01274DE70B
:102180009DF82230042262F302038DF822300127E9
:1021900044E79DF82230032262F302038DF82230D7
:1021A0009DF8213003F07803402B7FF437AF0127EF
:1021B00034E79DF82230032262F302038DF82230C7
:1021C0009DF8213013F0780F3FF428AF012725E761
:1021D0009DF8203043F001038DF820301EE79DF874
:1021E000203043F004038DF820307F422CE79DF926
:1021F0002030002B02DB4FF0FF3725E7099F23E754
:102200009DF821306FF341038DF821304FF0FF3BF3
:1022100029E713F0020F02D0DDF828B023E74FF0D2
:10222000FF3B20E7CB1E042B04D8DFE803F00B1D97
:1022300029353500039B1A1D03921A68D317CDE97F
:10224000062306E0039B1A1D03921A68D317CDE9F3
:102250000623012928D002297FF41CAFBDF91820DC
:10226000D317CDE9062315E7039B073323F00703B4
:1022700003F108020392D3E90023CDE90623E8E73E
:10228000039B073323F0070303F108020392D3E90A
:102290000023CDE90623DCE7039B1A1D03921A688D
:1022A000D317CDE90623D4E79DF818300693002311
:1022B0000793EFE6CB1E042B04D8DFE803F00B1FD7
:1022C00035414100039B1A1D03921B6806930023AE
:1022D00007931EE09DF82330632B07D0039B1A1D44
:1022E00003921B6806930023079312E0039B1A1DB9
:1022F00003921B680693002307930AE0039B0733AE
:1023000023F0070303F108020392D3E90023CDE988
:10231000062301291CD002297FF4BCAEBDF8183079
:10232000069300230793B5E6039B073323F00703C7
:1023300003F108020392D3E90023CDE90623E8E77D
:10234000039B1A1D03921B68069300230793E0E783
:102350009DF818300693002307939BE608290BD0BD
:10236000039B073323F0070303F108020392D3E929
:102370000023CDE906238DE6039B073323F00703F3
:1023800003F108020392D3E90023CDE9062381E695
:10239000039B1A1D03921B6806937BE64346524635
:1023A0002946304605F02FFD0028C0F24F81044435
:1023B000C2466FE429462520B0470028C0F2468176
:1023C0000134DDF808900DF1460B4FF0000AA7E04C
:1023D000DDF818A0BBF1000F08DB5946504605F0A8
:1023E000EDFD0AEB000BDDF8089099E0504605F092
:1023F000DDFDF6E7069B8DF83030DDF808900DF135
:10240000310B0DF1300A8BE019F0080F05D119F0EE
:10241000100904D04FF0200901E04FF02B09DDE94D
:102420000623002A73F1000102DBCDE9062309E04F
:10243000524263EB4303CDE906234FF02D0901E03F
:10244000DDF808900DF1460300930CAB08AADDE916
:10245000060105F06EFC8246BBF1000FC0F29080D1
:102460000DF14603A3EB0A039DF820206FF38612BB
:102470008DF820209B4540F28680ABEB0303099347
:102480000DF1460B4CE0069830B9DDF80890DFF806
:10249000C4B1ABF1050A43E00DF1460300930CAB68
:1024A00008AA002105F045FC82469DF8223043F041
:1024B00010038DF8223078238DF82330DDF8089052
:1024C000CAE7069A9DF82130C3F3C303072B06D849
:1024D000DFE803F0040C0E1012171C1E1460DDF868
:1024E00008900DF1460B4FF0000A19E01470F6E762
:1024F0001480F4E71460F2E72046E117C2E9000116
:10250000EDE72046E117C2E90001E8E71460E6E7DD
:102510001460E4E7DDF808900DF1460B4FF0000A77
:10252000BAF1000F00F08E80ABEB0A02B9F1000F98
:1025300000D001329DF8221011F0100F26D0023287
:10254000099B134411F0400F01D00A9A1344002F45
:1025500032DDFF1A9DF8203013F0040F2CD113F058
:10256000400F18D0B9F1000F18D029464846B0479F
:1025700000286BDB0134DDF80890302302930FE074
:102580000DF1460BCCE70DF1460BC9E711F0080F32
:10259000D6D00132D4E72023029301E03023029306
:1025A0003B465F1E002B07DD29460298B0470028F6
:1025B0004CDB01343B46F4E7B9F1000F05D0294666
:1025C0004846B047002841DB01349DF82230C3F370
:1025D0000012C3F3C003134305D029463020B0478F
:1025E000002833DB01349DF8223013F0100F06D0A1
:1025F00029469DF82300B047002827DB0134099BBA
:1026000003F1FF39002B07DD29463020B0470028B1
:102610001CDB01344B46F3E75B4652462946304605
:1026200005F0F1FB002811DB0444002F07DD2946EB
:102630002020B047002809DB0134013FF5E7C246FE
:10264000FFF728BBC246FFF725BB204613B0BDE805
:10265000F08F00BFD99000014FF02002EFF31183FB
:1026600082F31288BFF36F8F044A0121C2F840152C
:1026700083F31188BFF36F8F00207047000008417B
:1026800030B108B58001034B43F00103984708BD02
:10269000704700BF908C0001014910220A6070470A
:1026A00010ED00E072B6404080F31188BFF36F8FE9
:1026B000BFF34F8F30BF62B6BFF36F8F704700BF5D
:1026C00072B6494081F3118820BF80F3118862B649
:1026D000704700BF43B2002B08DB00F01F005B090E
:1026E000012202FA00F0024A42F82300704700BFBC
:1026F00000E100E043B2002B0DDB00F01F005B099E
:10270000012202FA00F02033034A42F82300BFF30B
:102710004F8FBFF36F8F704700E100E04209054B18
:1027200053F8222000F01F00012303FA00F01040AC
:10273000704700BF00E100E070B505464C1C072C57
:102740000BD86BB2002B13DB6401E4B203F16043DE
:1027500003F5614383F8004370BD094E59223146A9
:10276000084805F011FA5921304605F066FBE8E704
:1027700005F00F056401E4B2034B5C55ECE700BFC4
:10278000DC900001208E000114ED00E030BFFFF767
:10279000FDBF00BF08B5084B23F07F03074A9360D5
:1027A000BFF34F8FBFF36F8F03F00AFC04F0C4FE3A
:1027B00000F00AFA03F010FC0000000100ED00E058
:1027C0000A4A9368C3F8A80009490968C3F8AC101D
:1027D00008494B6843F080534B60002383F3118812
:1027E000BFF36F8F9368D3F8AC0070473C0C0021A7
:1027F0008C94000100ED00E014498A684FF030002D
:102800001044EFF3098C80E8F01F202080F3128839
:10281000BFF36F8F0E4F4FF000668A698A603E608B
:10282000D2F8A8000023C2F8A83080F3118802F182
:10283000300090E8F01F8CF3098802F1000004B525
:1028400005F022FBBDE80440704700003C0C00216D
:1028500004ED00E01EF0040F0CBFEFF30880EFF36F
:102860000980816911F8021C0229FFD001B505F029
:10287000F9FA01BD10B4A2F120040D4921F00101C3
:1028800042F8081C42F8203C019B42F81C3C029B89
:1028900042F8183C039B42F8143C4FF0807342F816
:1028A000043C04650023C0F8A83010BC704700BF8A
:1028B000F97C0001094B9860D0F8983083F30B88BD
:1028C000104681F30988002163B681F31188BFF3B4
:1028D0006F8F0022002305F00FFA00BF3C0C00218F
:1028E00001B5EFF30580A0F110004FEAC0000449E4
:1028F000014409C99847BDE8014002490847000062
:102900003C8B000109290001044B996898698842B1
:1029100003D003494FF080520A6070473C0C0021FD
:1029200004ED00E010B514460F4B9A6A9A6A9B6A50
:1029300013F4007F0BD00C4B9A6B9B6A13F4004F7F
:1029400005D021B1084A936A23F400439362064BF1
:102950009A6A9A6A9A6A42F47F429A62012105F061
:1029600098FA2070002010BD00ED00E00A4B9A6A32
:102970009A6A986A10F480100BD1074B9A6A9A6A87
:102980009A6A9A6A9A6A6FEA02426FEA12429A62F5
:1029900070470220F1E700BF00ED00E070B505468A
:1029A00014461E4B9A6A9A6A9B6A13F0020F0BD068
:1029B0001A4B5A6B9B6A13F0800F05D021B1174A4E
:1029C000936A23F080039362144B9A6A9B6A13F014
:1029D000100F04D1114B9B6A13F0020F04D00F4B60
:1029E0009B6A13F0100F0BD10C4A936A43F0FF035C
:1029F00093620121284605F04CFA2070002070BD3A
:102A0000074E40F24F123146064805F0BDF840F23D
:102A10004F11304605F011FAE6E700BF00ED00E087
:102A200014910001208E000138B500230B70284B53
:102A3000DC6A14F0020448D1DB6A002B46DB244B2D
:102A4000DD6A15F0804532D0836933F8022C4DF6EB
:102A500002739A4210D003F1604303F626631B7899
:102A600063B91C4B1B787BB91B4B1B889BB28BB18A
:102A7000FFF77CFF044629E0046827E00A460121AD
:102A8000FFF78CFF044621E00A460121FFF74AFFC9
:102A900004461BE0114D40F2C3222946104805F0C0
:102AA00073F840F2C321284605F0C7F90EE00B4C3D
:102AB00040F2C72221460A4805F066F840F2C721D5
:102AC000204605F0BAF92C4600E00024204638BD27
:102AD00000ED00E029ED00E02AED00E01491000196
:102AE000208E0001F0B58BB0294B5D68C5F3080559
:102AF000002383F31188BFF36F8F02F07F43B3F19C
:102B00007F4F0DD102F00C03082B23D012F0080FD9
:102B100003D00C4600268CB904E004460126FAE7EF
:102B2000002634461B4F40F2F23239461A4805F06F
:102B30002BF840F2F231384605F07FF90DF127020B
:102B40002946204605F0AAF905469DF8273023B10D
:102B50000BB0F0BD00263446E4E72022214601A850
:102B600005F057FA4EB1089BC3F308025AB96FEA51
:102B700053236FEA4323089305E0089B23F4FF7374
:102B800023F00103089301A9284605F067F9DFE760
:102B900000ED00E014910001208E0001044B5A6901
:102BA00042F010025A615A6942F480625A617047D9
:102BB00000ED00E0EFF30880EFF3098101B5724604
:102BC000FFF790FF01BD00BF002206E002F00F01F9
:102BD000094B0B442021197601321D2A0ADC53B21D
:102BE000002BF3DB03F1604303F56143202183F8FD
:102BF0000013F1E7704700BFFCEC00E0002080F319
:102C00001488BFF36F8F002080F30A8880F30B884D
:102C100005F036FF00200E490860BFF34F8F0D48C6
:102C200080F3088800F03CF8202080F311880A48DF
:102C30004FF40061401880F30988EFF314800221FB
:102C4000084380F31488BFF36F8FFFF7A3FD0000E4
:102C500094ED00E08810002188110021BFF34F8F10
:102C60000549CA6802F4E062044B1343CB60BFF32A
:102C70004F8F00BFFDE700BF00ED00E00400FA0544
:102C8000064B1868C0F307200023834205DA034A85
:102C90009360002111610133F7E7704790ED00E088
:102CA00010B572B6002484F31388FFF7E9FF2346BA
:102CB0000F2B09D803F120010D4A4FF0FF3042F8E5
:102CC00021000133DBB2F3E700230F2B09D803F116
:102CD0006001074A4FF0FF3042F821000133DBB2B8
:102CE000F3E762B6BFF34F8FBFF36F8F10BD00BF26
:102CF00000E100E008B5084B9B68834202D004F075
:102D00009DFB08BDEFF30583002BF8D0034A536801
:102D100043F080535360F2E73C0C002100ED00E0EB
:102D200010B584B0094C2346094A0121094800F036
:102D30006DF900230393084B0193E41A02940121D7
:102D400001A800F07BF904B010BD00BF0000012114
:102D5000000000215091000128050021014B024A8A
:102D60001A63704790ED00E0AAFF440010B40B68AE
:102D700023F01F020C7A04F01F031A43CB6823F0E0
:102D80001F03640943EA440343F0010302498860D6
:102D9000CA600B6110BC704790ED00E02DE9F04F68
:102DA00087B08146009101931446002734E06FF00C
:102DB000150653E0D84569D12946F0B205F0B8F8B8
:102DC00029E0584B9860D96801F01F0122F01F02DA
:102DD0000A43DA602946E0B205F0AAF8044610F189
:102DE000160F00F09780013415E0013B4D498860D3
:102DF0000A6902F01F0223F01F0313430B612946E7
:102E0000E0B205F095F8044610F1160F00F082804C
:102E1000013400E001340137009B9F427ADA07EB6E
:102E200047054FEA850A09EB8505D5F80480B8F116
:102E3000000FF0D0019B23B1284605F05CF8002874
:102E400064D059F80AB0584605F04BF8064608EB2E
:102E50000B00013805F045F88642A8D116F1160F8F
:102E600057D0631EB34259DB30462E4B9E60D96863
:102E700021F01F019E601B6943F01F0859F80A30BA
:102E80006A681A4402F1FF3B994293D0994298D064
:102E9000D845AAD0013B2349064688600A6902F05A
:102EA0001F0223F01F0313430B612946E0B205F014
:102EB0003FF8044610F1160F2CD00130194B9E60DC
:102EC000D9689DF8102061F304028DF810201B6969
:102ED000C3F34203D2B263F347128DF8102059F8BE
:102EE0000A306A681344029323F01F03A8EB0B080F
:102EF0004344013B23F01F03059302A9C0B205F030
:102F00000CF8044610F1160F84D103E06FF015049D
:102F100000E03446204607B0BDE8F08F6FF015049E
:102F2000F8E700BF90ED00E010B5034C01232278D4
:102F3000FFF734FF207010BD840C00212DE9F84309
:102F400007468846002403E06FF0150517E00134BA
:102F5000A0453CDD04EB44039A0007EB83035E6865
:102F6000002EF4D057F80290484604F0BAFF054608
:102F700006EB0900013804F0B4FF8542E4D104EB0C
:102F80008403164A42F8235015F1160F20D0144B33
:102F90001B78AB421FDD04EB840302EB8303114A71
:102FA00095609560D568187B65F304001873106907
:102FB000C0F342001D7B60F347151D73D16821F0FB
:102FC0001F015960126922F01F021A61BFE7002534
:102FD0002846BDE8F8836FF01505F9E7B006002133
:102FE000840C002190ED00E0034B05225A60BFF3F2
:102FF0004F8FBFF36F8F704790ED00E0BFF35F8F8F
:10300000014B00225A60704790ED00E010B5FFF7C9
:103010008BFF10F1160F00D010BD064C40F21112BC
:103020002146054804F0B0FD40F21111204604F09D
:1030300004FFF1E75C910001208E000110B5FFF75D
:103040007DFF10F1160F00D010BD064C40F221128A
:103050002146054804F098FD40F22111204604F075
:10306000ECFEF1E75C910001208E000138B51E4BAB
:103070001D68082D05D8FFF7C1FFFFF76FFE00247C
:1030800016E01A4C4FF4A4722146194804F07CFD56
:103090004FF4A471204604F0D0FE4FF0FF3014E04E
:1030A000114B596801EB04112046FFF75FFE013414
:1030B000A542F5D80F4B1D70FFF796FF0E4B1B680E
:1030C000C3F30723082B01D1002038BD074C4FF470
:1030D000D6722146064804F057FD4FF4D6712046BB
:1030E00004F0ABFE0020F0E7A49100015C91000128
:1030F000208E0001840C002190ED00E0014B18604F
:10310000704700BF64040021004870471C0700217D
:10311000014BC01A40117047D406002130B583B06E
:1031200005460C46FFF7F4FF014640230093234673
:10313000054A064805F01EF8011E01DB03B030BD4C
:103140002846A047FAE700BFBD810001CC8A0001F4
:1031500008B5084BD3E8EF2F22F00201C3E8E01FC7
:103160000028F7D112F0010F00D008BD05F038F8A3
:10317000FBE700BF2C07002110B54FF02003EFF351
:10318000118483F31288BFF36F8F134A136843F0DF
:103190000203136013F0010F08D1002384F3118898
:1031A000BFF36F8F93B905F011F810BD0B4BD3F837
:1031B0000C24D3F80C3412F0010F01D10023EDE7F9
:1031C000FFF7A2FF04F0B1FF0123E7E70021044865
:1031D00004F0BEFFE9E700BF2C07002100500041CA
:1031E000CC8A000170B50546CCB2012C07D8214627
:1031F000284604F052FF806800F0070070BD054EBD
:1032000079223146044804F0BFFC7921304604F0AD
:1032100014FEECE7CC910001208E00012DE9F04175
:1032200007461646CCB2214604F037FF0546012C6E
:103230000FD8314605F1080004F03EFF002806DBF8
:103240002146384604F030FF436898470020BDE827
:10325000F081DFF8208040F24D124146044804F02E
:1032600093FC40F24D11404604F0E7FDE1E700BF5A
:10327000208E0001CC91000138B505460C46FFF7C1
:1032800047FF014640220348FFF7C8FF0146284692
:10329000A04738BDCC8A000110B501281CD00328F6
:1032A0001FD060B1154C40F262222146144804F050
:1032B0006BFC40F26221204604F0BFFD10E00021CB
:1032C000104804F0EAFE836813F0070F08D10021CC
:1032D0000C4804F03DFF03E001210A4804F038FFE8
:1032E00010BD064C40F25E222146054804F04CFC1D
:1032F00040F25E21204604F0A0FDF1E7CC910001F0
:10330000208E0001CC8A000100B585B0CDF800D038
:10331000CDF804D000230293012303936B46074AA0
:1033200004F044FF002805DB4FF480420023684688
:1033300003F090F805B05DF804FB00BFFF810001C9
:1033400070B50646002201210520FFF7F5F905209A
:10335000FFF7C0F9114801F045FA114B98421AD114
:1033600001F064FA002403E00123AB601C44E4B2E2
:10337000012C0ED82146304604F08FFE054621462A
:10338000304604F095FE074904F09AFC0028EBDA79
:1033900000E0002070BD6FF00400FBE799320001EF
:1033A0000000AD0B3C92000170B50546012806D126
:1033B000324BD3F81C3403F00303022B3CD005F04E
:1033C000F7FA20B92E4B1B7893B1002300E00123BC
:1033D0001C467BB14FF02003EFF3118683F3128874
:1033E000BFF36F8F94B9254B0222C3F808230DE079
:1033F0000123EDE70026F5E7FCB13046FFF760F961
:103400001E4BD3F81835DBB2012B1BD01B4AD2F868
:10341000183403F00303D2F8182412F4803F25D1A6
:103420000022002AE8D0022B01D0012DE4D1FCB10A
:1034300086F31188BFF36F8F70BD2120002103F048
:10344000B3FFDDE70F4B1B68002BDFD00D4B0022D5
:103450001A601B68094B0222C3F818250A4B202268
:10346000C3F88021094B01221A60CFE70122D8E777
:10347000024B0222C3F80423DEE700BF00500041E4
:10348000860C00210451004100E100E00850004199
:1034900008B5C1B2014804F00BFE08BDCC8A00019A
:1034A00038B504461C4B0121D3E8EF2FC3E8E01FD9
:1034B0000028F9D142B134B1631EDBB2012B1DD813
:1034C0002046FFF771FF38BD144804F0F1FD1449A0
:1034D00000234B60CB6001238B60FEF72BFB0028A1
:1034E000E9DA104D4FF4087229460F4804F04CFBFE
:1034F0004FF40871284604F0A0FCDCE7094C40F2C8
:1035000032222146084804F03FFB40F23221204697
:1035100004F093FCD7E700BF30070021CC8A0001FC
:10352000C4060021CC910001208E000110B5044C8E
:103530002046FEF783F82046FFF7E0FD002010BD8F
:103540004535000170B582B006468DF807000224AB
:1035500006E0114B01221A701AE004F055FE013CFE
:10356000EFF311854FF0200181F3118801220DF155
:103570000701002002F0BAFB85F311880028E8D18A
:10358000054B1B7823B1002CE7D1034B00221A70A6
:10359000304602B070BD00BF850C00211F4B0340B8
:1035A0001F4A934232D016D8062B2BD006D9B3F53A
:1035B000801F0DD101230B7000207047FBB1022B3F
:1035C00003D104230B70002070476FF01500704783
:1035D0006FF015007047134A93421BD0B3F5A00F4C
:1035E00003D103230B7000207047B3F5800F03D184
:1035F00002230B70002070476FF015007047002009
:103600000870704706230B700020704707230B706B
:103610000020704705230B70002070470600F00063
:10362000060010000200400028B1012801D1034823
:103630007047002070470248704700BFE88A0001C9
:10364000048B00012DE9F04115460669371D0C4633
:1036500039B163688BB17368002B33D021460022E7
:1036600022E0DFF88880242241461F4804F08CFACB
:103670002421404604F0E1FBEBE7DFF870802522CF
:103680004146194804F080FA2521404604F0D5FB54
:10369000E1E7236873607A6894420FD17B600DE0A4
:1036A0007A600BE01A461B685BB19942FAD1002A96
:1036B000EFD0236813607B689C42F1D00023236025
:1036C00000E055B165B17368236074607B680BB12D
:1036D000002006E07C60002003E06FF0150000E0B1
:1036E0000020BDE8F08100BF208E0001489200015B
:1036F0002DE9F04100F01F044009FFF795FF60B38A
:10370000074603690126A6405C681CB125467CB1CA
:1037100025680DE025460BE06368A268324021462B
:1037200038469847BDB12B4605B12B682C461D463F
:103730009CB1A3681E42F5D06368002BECD1DFF882
:10374000248045224146064804F01EFA45214046A1
:1037500004F073FBE0E72B46E8E7BDE8F08100BF2B
:10376000208E000148920001F0B585B00E46194642
:1037700043681B7B06F01F0444EA4314B2F5005F64
:1037800022D007461546002302930393104604F007
:1037900071FD8DF808007B689968F14011F0010116
:1037A00002D1B5F5A03F14D0002302AA1946204645
:1037B00001F00CFD304B98425AD10121204601F016
:1037C0005DFF002005B0F0BD204602F04FF800205C
:1037D000F8E763091DD0012B01D14FF6FF7104F00A
:1037E0001F03D94011F0010F16D004F01F05630923
:1037F0001FD0012B1FD0214E40F22E2231462048EF
:1038000004F0C2F940F22E21304604F016FB1D4BA5
:1038100012E04FF0FF31E2E7184D40F2292229462D
:10382000174804F0B1F940F22921284604F005FBBD
:10383000DBE7144B00E0144B803553F8253013F0D0
:10384000010FB1D10DF10701204601F0A9FE0F4B88
:10385000984203D00DF107030393A5E70DF107008C
:1038600001F004FF044B9842F4D06FF00B00A9E77D
:103870006FF00400A6E700BF0000AD0B78920001D6
:10388000208E000100058C4100088C410400AD0B26
:1038900030B583B004460DF1070101F081FE054605
:1038A000204602F045F80B4B98420FD19D4205D0BF
:1038B000084B984207D1002003B030BD9DF80700A7
:1038C00001F0CCFEF4E76FF00400F5E76FF00400C0
:1038D000F2E700BF0000AD0B2DE9F04387B0D0F850
:1038E000048098F80C3001F01F0545EA4315002AC2
:1038F00043D00C4617460026039604960DF1170197
:10390000204601F04DFE8146334603AA3146284643
:1039100001F05CFC2F4B984259D1994535D017F4F2
:10392000007F41D00DF103013846FFF737FE064610
:1039300038BB9DF803308DF8043017F4807F0CBF3E
:10394000012300238DF80530384604F067FC8DF81C
:10395000060017F4006F1DD0D8F80430012101FAD9
:1039600004F49C60002201A9284601F01DFD194BBA
:10397000984206D06FF0150603E02846FFF788FF4F
:103980000646304607B0BDE8F0839DF8170001F009
:1039900065FEC4E717F4806FE4D0D8F80420012353
:1039A00003FA04F4D460DDE7384604F037FC8DF800
:1039B000080000231A4602A9284601F007FC054B1F
:1039C000984201D10026DCE76FF01506D9E76FF0C9
:1039D0001506D6E70000AD0B08B501F035FE08B1BD
:1039E000002008BD01F006FE084B98420AD10021D4
:1039F000074801F0CFFD002205210A20FEF79CFEBA
:103A00000020EEE76FF00400EBE700BF0000AD0B15
:103A1000F136000143681A68B1F5164F6FD03AD8F5
:103A2000B1F5165F6ED00AD9B1F5E14F75D024D942
:103A300047F6122399422BD14FF4000313E0B1F55E
:103A4000966F61D007D9B1F5166F63D0B1F5965F67
:103A500010D13C4B07E0B1F5967F58D0B1F5167FF9
:103A600005D14FF41C33C2F82435002070476FF0A5
:103A7000150070476FF015007047B1F5615F4ED0CB
:103A8000B1F5964F01D1304BEDE76FF0150070475F
:103A90006FF015007047B1F5613F42D009D9B1F51B
:103AA000612F46D01FD9294B994248D14FF08053FE
:103AB000D9E7B1F5963F37D005D9B1F5E13F0FD140
:103AC0004FF0EB73CFE74DF6C02399422ED0B1F5FE
:103AD000614F02D14FF46B03C5E76FF015007047DB
:103AE0006FF0150070471A4B994225D0B1F5E12FC0
:103AF00002D14FF0E863B6E76FF0150070474FF45E
:103B00001D03B0E7134BAEE74FF49E23ABE74FF432
:103B1000A033A8E74FF41D23A5E70F4BA3E70F4BF6
:103B2000A1E74FF06C739EE70D4B9CE74FF46503E4
:103B300099E74FF0706396E74FF0806393E76FF07B
:103B40001500704700B0130000A04E0040420F0067
:103B500090D003000050270000C0750000F03A002C
:103B600000903A012DE9F04105460F46D0F810804B
:103B700004F01EFF20B9164B1B78ABB1002300E008
:103B800001239BB14FF02003EFF3118483F31288DC
:103B9000BFF36F8F2646284604F037FC50B984F3F4
:103BA0001188BFF36F8FEDE70123EAE7284604F0A1
:103BB00091FC0646414601F8107F0122284604F098
:103BC000B0FC86F31188BFF36F8FBDE8F08100BFB2
:103BD000860C00212DE9F04104460D4601F112004A
:103BE00000F094FF1C4B984232D1AE7C04F10C07DC
:103BF00014F5907411D046F00043C4F88030D7B16A
:103C000046F00046C7F88060AA7C01239340134A1F
:103C1000C2F804350020BDE8F081DFF848804FF499
:103C2000127241460E4803F0AFFF4FF41271404646
:103C300004F003F9DFE70B4C40F24E22214608481E
:103C400003F0A2FF40F24E21204604F0F6F8D7E739
:103C50006FF00400DFE700BF0000AD0B00F0004193
:103C6000208E0001C08E0001F8B54468002940F0A4
:103C7000B181E568B5F1FF3F2ED12569B5F1FF3F70
:103C800000F0C480237F002B00F09F8003276B0986
:103C900000F09D80012B40F09D804FF6FF7305F0F2
:103CA0001F02D34013F0010F00F0968005F01F06AD
:103CB0006D0900F09E80012D00F09D80B44D40F212
:103CC0002E222946B34803F05FFF40F22E212846FA
:103CD00004F0B3F8B0498FE06B091DD0012B1ED161
:103CE0004FF6FF7305F01F02D34013F0010F18D0F9
:103CF00005F01F066D0921D0012D21D0A44D40F201
:103D00002E222946A34803F03FFF40F22E212846E9
:103D100004F093F8A04A14E04FF0FF33E2E70023E9
:103D2000E0E79B4E40F2292231469A4803F02CFFEF
:103D300040F22921304604F080F8D9E7964A00E0A5
:103D4000964A0123B3409360E5686B091DD0012BAF
:103D50001ED14FF6FF7305F01F02D34013F0010F81
:103D600018D005F01F066D0921D0012D21D0884DF6
:103D700040F22E222946874803F006FF40F22E210A
:103D8000284604F05AF8844914E04FF0FF33E2E784
:103D90000023E0E77E4E40F2292231467D4803F0C1
:103DA000F3FE40F22921304604F047F8D9E77A497A
:103DB00000E07A4906F1800251F8223003F0E04336
:103DC00043F0030341F8223057E700275FE74FF045
:103DD000FF3364E7002362E76D4E40F2292231464B
:103DE0006C4803F0D1FE40F22921304604F025F85A
:103DF0005CE7694900E0694906F1800251F8223028
:103E000003F0E04343EA870341F822306569B5F1E6
:103E1000FF3F2ED1A569B5F1FF3F00F0CC80637F55
:103E2000002B00F09F8003276B0900F09D80012B81
:103E300040F09D804FF6FF7305F01F02D34013F052
:103E4000010F00F0968005F01F066D0900F09E80BE
:103E5000012D00F0A5804E4D40F22E2229464D48FE
:103E600003F092FE40F22E21284603F0E6FF4A4975
:103E700097E06B091DD0012B1ED14FF6FF7305F0A3
:103E80001F02D34013F0010F18D005F01F066D0973
:103E900021D0012D21D03E4D40F22E2229463D4811
:103EA00003F072FE40F22E21284603F0C6FF3A4A84
:103EB00014E04FF0FF33E2E70023E0E7344E40F236
:103EC00029223146334803F05FFE40F22921304673
:103ED00003F0B3FFD9E7304A00E0304A0123B34092
:103EE000936065696B091DD0012B1ED14FF6FF73DE
:103EF00005F01F02D34013F0010F18D005F01F0684
:103F00006D0921D0012D21D0214D40F22E222946CC
:103F1000204803F039FE40F22E21284603F08DFFA1
:103F20001D4914E04FF0FF33E2E70023E0E7184EAD
:103F300040F229223146174803F026FE40F229219B
:103F4000304603F07AFFD9E7134900E0134906F140
:103F5000800251F8223003F0E04343F0030341F8BC
:103F6000223057E700275FE74FF0FF3364E7002375
:103F700062E7074E40F229223146064803F004FE6C
:103F800040F22921304603F058FF5CE7024908E07F
:103F900078920001208E000100058C4100088C41C0
:103FA000974906F1800251F8223003F0E04343EADA
:103FB000870341F822302368E1682269C3F80C15B1
:103FC000C3F8142523686169A269C3F80815C3F80A
:103FD0001025F8BDE568B5F1FF3F31D12569B5F190
:103FE000FF3F6DD16569B5F1FF3F40F0A980A5693C
:103FF000B5F1FF3FDFD06B0900F0E280012B40F00C
:10400000E2804FF6FF7305F01F02D34013F0010F5B
:1040100000F0DB8005F01F066D0900F0E380012D44
:1040200000F0E280774D40F22E222946764803F0D8
:10403000ABFD40F22E21284603F0FFFE7349D4E089
:104040006B091DD0012B1ED14FF6FF7305F01F0227
:10405000D34013F0010F18D005F01F066D0921D0D1
:10406000012D21D0674D40F22E222946664803F0EB
:104070008BFD40F22E21284603F0DFFE634914E059
:104080004FF0FF33E2E70023E0E75E4E40F22922E3
:1040900031465D4803F078FD40F22921304603F0B7
:1040A000CCFED9E7594900E0554906F1800251F8A4
:1040B000223003F0E04343F0020341F822308DE761
:1040C0006B091DD0012B1ED14FF6FF7305F01F02A7
:1040D000D34013F0010F18D005F01F066D0921D051
:1040E000012D21D0474D40F22E222946464803F0AB
:1040F0004BFD40F22E21284603F09FFE434914E079
:104100004FF0FF33E2E70023E0E73E4E40F2292282
:1041100031463D4803F038FD40F22921304603F096
:104120008CFED9E7394900E0354906F1800251F8A3
:10413000223003F0E04343F0020341F8223051E71C
:104140006B091DD0012B1ED14FF6FF7305F01F0226
:10415000D34013F0010F18D005F01F066D0921D0D0
:10416000012D21D0274D40F22E222946264803F06A
:104170000BFD40F22E21284603F05FFE234914E098
:104180004FF0FF33E2E70023E0E71E4E40F2292222
:1041900031461D4803F0F8FC40F22921304603F077
:1041A0004CFED9E7194900E0154906F1800251F8A3
:1041B000223003F0E04343F0020341F8223016E7D7
:1041C0004FF0FF331FE700231DE70E4E40F2292278
:1041D00031460D4803F0D8FC40F22921304603F067
:1041E0002CFE17E7094900E0054906F1800251F865
:1041F000223003F0E04343F0020341F82230DAE6D4
:1042000000088C4178920001208E000100058C414D
:1042100021F07F4100F5A870014B43F82010704752
:104220000060014100F5A870014B53F82000704771
:10423000006001414FF480338340024AC2F84433A6
:10424000704700BF006001414FF480338340024A51
:10425000C2F84833704700BF00600141014BD3F8FA
:10426000040570470060014110B501238340DC4321
:104270000C4AD2E8EF1F01EA040CC2E8EECFBEF10F
:10428000000FF6D14FF4803202FA00F0064AC2F86D
:104290000803BFF35F8FBFF36F8F0B4214BF012082
:1042A000002010BD500700210060014170B5044698
:1042B00004F01BFA05464FF48033A340154AD2F8A8
:1042C0000423134205D10026284604F017FA30468D
:1042D00070BD0123A340DB430F4AD2E8EF1F01EA80
:1042E0000300C2E8E60F002EF7D159B904F15003DC
:1042F0009B009BB203F1824303F5B0331B6813B1FB
:10430000012300E001231E46002BDDD0204604F0EF
:10431000DDF9D9E7006001414C07002101B9704780
:10432000012383400E4AD2E8EF1F1943C2E8EC1F75
:10433000BCF1000FF7D14FF480338340094AC2F833
:104340000433094BD3E8AF3F23FA00F010F0010F1C
:10435000E5D0064B4FF48002C3F80021DFE700BF31
:1043600050070021006001414C07002100E100E0FE
:10437000F8B5074614461E461046194604F0B2F931
:104380000546154B1A68A01A1C605E60A5F500135F
:10439000B3F5400F08D3002403F0B0FA3846FFF716
:1043A00041FFA8420CD0F8BD0C4B19680B0A0A0655
:1043B000521943F100030A49C1E900230124EBE744
:1043C0001CB13846FFF736FFEDE74FF400013846E1
:1043D000FFF71EFFF5E700BF40050021540700214D
:1043E0002805002138B50D4B1B681D0A1C06BFF3BC
:1043F0005F8FFFF733FF0346201845F10001B3F547
:10440000801F0AD2064BD3E90023994208BF90428D
:1044100003D210F1807041F1000138BD5407002132
:10442000280500212DE9F843064614461D4610468E
:10443000194604F057F90746FFF7D4FFA94208BF11
:10444000A0421ED2B4EB000865EB01094FF0807268
:1044500000234B4508BF42452AD3174B03EB0613F5
:10446000D3E90223AB4208BFA24214D039463046FA
:1044700004F049F9394604F025F9241845F10005FE
:1044800009E00123B3400D4AD2E8EF1F1943C2E807
:10449000E01F0028F8D1084B320103EB0616C6E9ED
:1044A000024508999950099B73600020BDE8F88384
:1044B0006FF01500FAE700BF300500214C0700211E
:1044C00030B583B000231E4AC2F80835002B25DD25
:1044D0001B4C0225C4F804531A4B4FF48002C3F856
:1044E0008021002201211620FEF726F91620FEF772
:1044F000F1F80123144A13602360144A1360002466
:104500000194134B0093134A0023204604F036F91C
:104510002846FEF7C5FF204603B030BD0E4A02EB29
:1045200003124FF0FF304FF0FF31C2E902014FF4A8
:1045300080329A400249C1F804230133C6E700BF24
:104540000060014100E100E00860014150070021E6
:1045500071430001FFFF7F00300500212DE9F04786
:1045600082B00446FFF7A2FE10B902B0BDE8F087A2
:10457000FFF738FF06460F4604F0B7F88246134BA4
:1045800003EB0413D3E902894F4508BF46450BD21C
:104590000026504604F0B2F8002EE6D000954246C0
:1045A0004B462046B047E0E7084A230102EB0411DE
:1045B000D6584D680020D0504FF0FF324FF0FF33F7
:1045C000C1E902232046FFF73FFEE2E73005002164
:1045D00010B50D4BD3F8043313F0020F0AD00B4B78
:1045E0001B683BB1094B00221A601B68084A13681C
:1045F000013313600024002C00DD10BD2046FFF7BE
:10460000ADFF0134F7E700BF0060014104610141E3
:104610005407002110B582B0B0F1FF3F07D0441E0F
:10462000002C07DD114B9C4205DD114C03E000F529
:104630000000F4E70024FFF7D5FE0E4BD3E900237A
:10464000801AB0F5000F00D3002404440134B4F5FF
:10465000000F00D3064C0020019007490091121969
:1046600043F1000304F08AF802B010BDFEFF7F00A2
:10467000FFFF7F00400500217143000108B5FFF7EF
:10468000B1FE024B1B68C01A08BD00BF40050021E7
:10469000084B1A6804331B68072A01D000207047B2
:1046A000023B002B04D8DFE803F001000120704733
:1046B000002070473001FF01034B1B68072B01D01E
:1046C00000207047012070473001FF01014B024A72
:1046D0001A607047880400210090D00308B50023B9
:1046E0001F2B12D803F160021A4951F83220B2F19F
:1046F000FF3F0AD0174A03F1600152F8310002EB84
:10470000C102526802600133EAE7FFF7C1FF58B106
:10471000114BD3F8003413F0010F05D00E4B0022DB
:10472000C3F81421C3F81821FFF7C6FF50B10A4B94
:10473000D3F8003413F0010F04D0074B6FF00102DF
:10474000C3F80024054B1A68054BC3F84425FFF74E
:10475000BDFF08BD0000FF01005000410080FF01C7
:104760000060004130B40468B4FA84F3D3F11F034D
:1047700011D401229A4024EA0202D0E8EF5FA54258
:1047800004D1C0E8EC2FBCF1000FF6D1EBD10B70D7
:10479000024830BC70470248FBE700BF0000AD0B89
:1047A0000200AD0B10B403680C4623FA01F111F0BE
:1047B000010F10D102680123A3401343D0E8EF1F7B
:1047C000914204D1C0E8EC3FBCF1000FF6D1F1D129
:1047D000024810BC70470248FBE700BF0000AD0B69
:1047E0000400AD0B38B5044640B10B4B1B7983B9BF
:1047F000094B1C6001221A71084838BD084DBD22C2
:104800002946084803F0C0F9BD21284603F015FBEE
:10481000EBE70548F1E700BF580700210000AD0BAA
:1048200034930001208E00010C00AD0B10B50D4B30
:104830001B7943B10520FDF771FF78B10A4B0122C6
:10484000C3F8142510BD094CD6222146084803F0B0
:104850009BF9D621204603F0F0FAEBE70520FDF79F
:1048600039FFEBE758070021005000413493000165
:10487000208E000138B50446274B1B797BB1DCB193
:10488000012C3ED0254C4FF4A2722146244803F05F
:104890007BF94FF4A271204603F0CFFA29E01F4DB7
:1048A0004FF4897229461E4803F06EF94FF489715E
:1048B000284603F0C2FAE2E71A4AD2F8183403F0A5
:1048C0000303D2F8182412F4803F13D100220AB156
:1048D000022B11D0134B0122C3F81825124B0022D2
:1048E0001A601B680F4B0222C3F80423083301220D
:1048F0001A6038BD0122EAE70A4B0222C3F81825E4
:10490000ECE70A4B00221A601B68064B0122C3F831
:1049100004231A60EDE700BF58070021349300011B
:10492000208E00010050004104510041005100411F
:10493000F8B50446514B1B797BB1DCB1012C2AD070
:104940004F4C40F2671221464E4803F01DF940F2E9
:104950006711204603F071FAF8BD494D40F24B1241
:104960002946484803F010F940F24B11284603F05D
:1049700064FAE2E7444B0222C3F8082303F582738A
:1049800000221A601B68414B01221A60012C0ED0D4
:1049900042F2107553E001233B4AC2F8083302F596
:1049A0008072002111601268394A1360EEE72546D3
:1049B00042F2107613E0344BD3F8185405F0030597
:1049C000D3F8183413F4803F27D10023002BC3D031
:1049D000012DC1D1012003F0F1FE013EBCD0002C1D
:1049E000E9D0012C0DD02B4F4FF44F72394625489A
:1049F00003F0CAF84FF44F71384603F01EFA002353
:104A0000E4E7214BD3F80C5405F00105D3F80C343E
:104A100013F4803F03D10023D8E70123D6E7012315
:104A2000D4E7194BD3F8183413F4803F21D1002375
:104A3000002B91D0012003F0C1FE013D8CD0002C51
:104A4000EFD0012C0DD0134E4FF44F7231460D486C
:104A500003F09AF84FF44F71304603F0EEF900235B
:104A6000E6E7094BD3F80C3413F4803F03D100235D
:104A7000DEE70123DCE70123DAE700BF5807002166
:104A800034930001208E0001005000410C50004181
:104A9000045000417493000108B5184B1B6853B1D2
:104AA000164B002018601B68154B0122C3F8082321
:104AB000144B1B689847144B1B6803B908BD124B75
:104AC00000221A601B680E4AD2F8183403F0030360
:104AD000D2F81824012B08D0094B0222C3F808236E
:104AE000084B1B6801209847E8E7054B0222C3F8F2
:104AF0001825083301221A60E0E700BF0051004189
:104B000000500041580700210451004108B50146FA
:104B10000148FFF727FE08BD8C0400210830034B35
:104B200033F8100000F00100704700BF900400212E
:104B30000830034B33F81000C0F34010704700BF3B
:104B4000900400210830044B33F8100010F01C00D2
:104B500018BF0120704700BF900400210830034BAC
:104B600033F81000C0F34000704700BF90040021EC
:104B70000830024B33F81000400B704790040021BE
:104B8000002204E04FF0FF3383420FD001322F2A7E
:104B90000AD802F10803064931F8133013F4807F74
:104BA000F0D0C3F34323EFE70020704701207047A4
:104BB00090040021002313B14FF0FF307047074AE3
:104BC00052F83320824201D00133F4E7034A02EB6A
:104BD000C30252688A42F7D11846704790040021F8
:104BE0000830064B33F8100010F4807F04D0C0F377
:104BF000432003EBC0007047002070479004002161
:104C000070B504460D46FFF7EBFF20B10668426819
:104C100029462046B047044B9B6823B1024AD2681C
:104C200029462046984770BD9004002110B483B0F7
:104C30000446114B93E8030002AB03E9030020464E
:104C4000002309E002AA02EB830252F8082C116A41
:104C500040F8041B11620133012BF3D90023012B0F
:104C600004D854F823202AB90133F8E7002003B010
:104C700010BC70470120FAE7808C000100F10802A7
:104C8000164B33F8123013F4807F25D010B5C3F3E0
:104C90004324104623F4F853104A22F810302046DB
:104CA000FFF76EFF00B110BD0C48002340F8343010
:104CB00021467430FFF776FD094B9842F3D0094C3A
:104CC0004FF499722146084802F05EFF4FF4997143
:104CD000204603F0B2F8E6E7704700BF90040021D9
:104CE0000000AD0BA8930001208E000110B5044612
:104CF000FFF71EFF50B12046FFF73AFF084B00F5C3
:104D0000A270002243F8202043F820202046FFF71D
:104D1000B5FF0834034B002223F8142010BD00BF58
:104D200000A000419004002170B582B006460C46F8
:104D30001546FFF7A3FF24B329462046FFF73AFFA5
:104D4000031E13DB104A42F8334002EBC3014D60EF
:104D50005B029BB206F1080032F810100B4343F4DB
:104D6000807322F81030094802B070BD0DF10701C0
:104D70000748FFF7F7FC054B9842F5D19DF807303F
:104D8000E0E70248F0E700BF900400210000AD0B0F
:104D90000405002138B50446CCB194FAA4F3B3FA63
:104DA00083F301229A4024EA0204094A03F5A2731C
:104DB00052F82350C5F3052552F82300C0F30140F3
:104DC00003F016FD01462846FFF71AFFE4E738BD59
:104DD00000A000412DE9F84304460D46164608465A
:104DE00003F008FD50BB022E00F0E6804FF00208F1
:104DF000630900F0E480012B40F0E4804FF6FF737C
:104E000004F01F02D34013F0010F00F0DD8004F026
:104E10001F07630900F0E580012B00F0E480DFF854
:104E2000089240F22E2249467D4802F0ADFE40F243
:104E30002E21484603F001F87A49D5E0294620465C
:104E4000FFF7DEFE63091DD0012B1ED14FF6FF7365
:104E500004F01F02D34013F0010F18D004F01F0517
:104E6000630921D0012B21D06F4F40F22E22394609
:104E70006B4802F089FE40F22E21384602F0DDFF39
:104E8000684B14E04FF0FF33E2E70023E0E7664DA4
:104E900040F229222946624802F076FE40F229219A
:104EA000284602F0CAFFD9E75E4B00E05F4B803531
:104EB00053F82530C3F301439E4240F0A5806309B7
:104EC0001DD0012B1ED14FF6FF7304F01F02D340FB
:104ED00013F0010F18D004F01F05630921D0012B36
:104EE00021D0514F40F22E2239464D4802F04CFE5F
:104EF00040F22E21384602F0A0FF4A4914E04FF05C
:104F0000FF33E2E70023E0E7474D40F2292229463C
:104F1000434802F039FE40F22921284602F08DFF75
:104F2000D9E7404900E0414905F1800351F82320C9
:104F300022F4403241F8232063091DD0012B1ED1F9
:104F40004FF6FF7304F01F02D34013F0010F18D087
:104F500004F01F05640921D0012C21D0324C40F20D
:104F60002E2221462E4802F00FFE40F22E2120462E
:104F700002F063FF2B4914E04FF0FF33E2E7002318
:104F8000E0E7294D40F229222946254802F0FCFDA0
:104F900040F22921284602F050FFD9E7214900E0DC
:104FA000224905F1800351F8232022F4403242EADD
:104FB000064641F8236027E04FF0030818E74FF05A
:104FC000FF331DE700231BE7174F40F22922394624
:104FD000134802F0D9FD40F22921384602F02DFF96
:104FE00015E7104900E0114907F1800251F822301D
:104FF00023F4403343EA084341F82230032D07D01D
:10500000022E03D0032E08D0BDE8F883012DF9D17C
:1050100029462046FFF7F4FDF6E7022DF4D1F7E725
:10502000208E000100058C417892000100088C411F
:105030002DE9F04184B05E4A6B4692E8030083E8B4
:105040000300002302A809E004AA02EB830252F83D
:10505000102C116A40F8041B11620133012BF3D9A3
:10506000A0E04FF0FF3377E0002375E0514F40F2AE
:1050700029223946504802F087FD40F2292138465E
:1050800002F0DBFE6EE04D4B00E04D4B803753F8F5
:105090002720C2F3014231462046FFF79BFE6309F9
:1050A0001DD0012B1ED14FF6FF7304F01F02D34019
:1050B00013F0010F18D004F01F06640921D0012C51
:1050C00021D03C4C40F22E2221463B4802F05CFDB0
:1050D00040F22E21204602F0B0FE384A14E04FF094
:1050E000FF33E2E70023E0E7324E40F22922314667
:1050F000314802F049FD40F22921304602F09DFE80
:10510000D9E72E4A00E02E4A0123B340136204ABD4
:1051100003EB850353F8084C002C38D094FAA4F420
:10512000B4FA84F404EB451404F10802254B33F877
:105130001260C6F38206E10804F0070202A8012308
:1051400003FA02F2435C23EA02034354630988D062
:10515000012B89D14FF6FF7304F01F02D34013F0E7
:10516000010F83D004F01F0763098CD0012B8CD072
:10517000DFF8408040F22E2241460F4802F004FD45
:1051800040F22E21404602F058FE0C4B7EE70135DE
:10519000012DBCD90C4B00221A601B6802A8FFF736
:1051A00045FD08B10025F3E704B0BDE8F08100BF7C
:1051B000808C000178920001208E000100058C4156
:1051C00000088C41900400217CA100412DE9F843A6
:1051D000044615461E4600295DD0884603F0F2FAC3
:1051E000002840F0C88063091ED0012B1FD14FF664
:1051F000FF7304F01F02D34013F0010F19D004F025
:105200001F07630922D0012B22D0DFF8849140F2DE
:105210002E2249465C4802F0B7FC40F22E21484657
:1052200002F00BFE594914E04FF0FF33E1E7002391
:10523000DFE7574F40F229223946534802F0A4FCD9
:1052400040F22921384602F0F8FDD8E74F4900E046
:10525000504907F1800351F82330B8F1000F3BD0DB
:105260000C2242F0030223EA0203B8F1000F35D00A
:1052700098F8002092001343803741F82730464ABF
:1052800004F1080132F8113023F002039BB243F01D
:10529000010322F81130B5B195F80080D5F80490DB
:1052A0002046FFF75BFCD8B1B9F1000F65D13A4B4E
:1052B00004F1080233F8120020F01C0080B240EA2A
:1052C000880023F81200002E5BD0726831682046F7
:1052D000FFF72AFDBDE8F8830022C2E70022CAE7F3
:1052E0002D4B04F1080233F8127027F02007FF0459
:1052F000FF0C23F81270B9F1000FD8D0B8F1030FEA
:105300003DD86B681D78B8F1000F08D1234B05F527
:10531000A275002243F8252043F82520C7E7404620
:1053200003F067FA1D4B05F5A27253F8221021F025
:10533000030143F8221053F8221021F44F3121F4D5
:10534000407143F8221053F822C0210201F47C512D
:10535000000400F4403001434CEA010143F82210FC
:105360006D03ADB204F108032F4347F020070A4A4A
:1053700022F813709BE70A48ACE70948AAE70848F7
:10538000A8E70848A6E700BF208E000100058C4171
:105390007892000100088C419004002100A0004197
:1053A0000400AD0B0000AD0B2DE9F0470446154697
:1053B000002900F081800F4603F013FA28B120463F
:1053C000FFF7B6FB002840F0C9802046FFF7BAFB84
:1053D00018B17B78012B00F0C38007F1010907F1B8
:1053E000020863091ED0012B1FD14FF6FF7304F092
:1053F0001F02D34013F0010F19D004F01F066309F8
:1054000022D0012B22D0DFF874A140F22E22514687
:10541000584802F0B9FB40F22E21504602F00DFD33
:10542000554A14E04FF0FF33E1E70023DFE7534E26
:1054300040F2292231464F4802F0A6FB40F22921D2
:10544000304602F0FAFCD8E74B4A00E04C4A06F13D
:10545000800352F82310B9F1000F73D0022343F0F8
:105460000103B8F1000F6FD00C200343002F6DD063
:105470004FF47060034321EA0301B9F1000F67D0D4
:105480007B785B0043F00103B8F1000F62D0B8787D
:1054900080000343002F5FD03878000203430B43A2
:1054A000803642F82630374A04F1080132F81130CC
:1054B00043F0030322F81130002D53D0204603F0AF
:1054C00090F9002851D12A782F4B02F5A27143F8A8
:1054D000210043F821002B4904F1080031F8103075
:1054E00023F02003DB04DB0C21F81030697800295D
:1054F0003DD095F802C0244D02F5A27655F826005D
:1055000020F4991020F4F85045F8260055F826703C
:10551000200200F47C50090401F4403101434FEAB9
:105520000C5000F480100143394345F82610520313
:1055300092B208341A4342F02002124B23F814208E
:10554000124810E000238AE700208EE7002091E750
:10555000002397E700209CE700209FE70C4802E02B
:105560000B4800E00948BDE8F0870948FBE7074819
:10557000F9E700BF208E000100058C417892000100
:1055800000088C419004002100A000410000AD0BF8
:105590000400AD0B014B9860D96070479004002166
:1055A00070B504460D4659B12046FFF7C1FAA0B1C7
:1055B00008340B4B33F814305B0B2B70094870BD6B
:1055C000094E40F235223146084802F0DDFA40F239
:1055D0003521304602F031FCE6E70548EFE700BF31
:1055E000900400210000AD0BA8930001208E000163
:1055F0000400AD0B0F4B93F878300BB10E48704799
:1056000010B50C4C6022002104F1100002F025FDC1
:105610000A20FDF75FF8094B00221A601B68084B4F
:105620004FF00042C3F80423012384F87830636705
:10563000044810BD900400210500AD0B7CA1004181
:1056400000A000410000AD0B034B93F87800003838
:1056500018BF0120704700BF9004002108B5014623
:105660000148FFF79FF808BD0005002108B5014675
:105670000148FFF777F808BD0005002170B5044622
:105680000D46FFF75FFAB8B12046FFF751FA18B19F
:10569000204603F0A6F8E0B9002D4AD004F1080333
:1056A0006A4A32F81330C3F38203042B00F08A8075
:1056B000052B4BD1022686E0654E40F2DF323146A3
:1056C000644802F061FA40F2DF31304602F0B5FB87
:1056D000DAE72046FFF74CFA044607281CD8A30057
:1056E00003F580739BB203F1824303F5204300224C
:1056F0001A601B68584A04F5A27152F8213043F031
:10570000010342F82130002D00F09E80012000FAB4
:1057100004F4C2F8044397E0504E4FF4237231462C
:105720004C4802F031FA4FF42371304602F085FB09
:10573000D5E7474D40F2EE322946464802F024FABA
:1057400040F2EE31284602F078FBA7E763091DD04E
:10575000012B1ED14FF6FF7304F01F02D34013F04C
:10576000010F18D004F01F05630921D0012B21D0AF
:105770003B4E40F22E223146364802F005FA40F206
:105780002E21304602F059FB364B14E04FF0FF3328
:10579000E2E70023E0E7324D40F2292229462D4876
:1057A00002F0F2F940F22921284602F046FBD9E73F
:1057B0002C4B00E02C4B1B69EB4013F0010F22D067
:1057C000032600E0032663091FD0012B20D14FF6EA
:1057D000FF7304F01F02D34013F0010F1AD004F03E
:1057E0001F05640923D0012C23D01D4C40F22E222A
:1057F0002146184802F0C8F940F22E21204602F056
:105800001CFB184916E00226DDE74FF0FF33E0E706
:105810000023DEE7124D40F2292229460D4802F00E
:10582000B3F940F22921284602F007FBD7E70D49DA
:1058300000E00D4905F1800251F8223023F4403395
:1058400043EA064341F8223070BD00BF90040021B6
:10585000A8930001208E000100A00041E893000100
:105860007892000100058C4100088C4138B504464F
:10587000FFF75EF9A0B1204602F0B3FF80B12046E9
:10588000FFF776F901228240244BC3F8082300F584
:10589000A27053F8202022F0030243F820203CE0BD
:1058A00063091DD0012B1ED14FF6FF7304F01F02B8
:1058B000D34013F0010F18D004F01F05640921D064
:1058C000012C21D0164C40F22E222146154802F020
:1058D0005BF940F22E21204602F0AFFA124914E0A3
:1058E0004FF0FF33E2E70023E0E70D4D40F22922BD
:1058F00029460C4802F048F940F22921284602F0D6
:105900009CFAD9E7084900E0084905F1800351F8FD
:10591000232022F4403241F8232038BD00A000416A
:1059200078920001208E000100058C4100088C4116
:1059300038B50446FFF7F2F808B9244838BD2046C8
:10594000FFF794FF2046FFF7D1F963091DD0012B23
:105950001ED14FF6FF7304F01F02D34013F0010F66
:1059600018D004F01F05640921D0012C21D0184C57
:1059700040F22E222146174802F006F940F22E216D
:10598000204602F05AFA144914E04FF0FF33E2E7E0
:105990000023E0E70E4D40F2292229460D4802F08F
:1059A000F3F840F22921284602F047FAD9E70A49DC
:1059B00000E00A4905F1800251F8223003F0E0438B
:1059C00043F0020341F822300548B7E70400AD0B6D
:1059D00078920001208E000100058C4100088C4166
:1059E0000000AD0B38B501204FF4807300210D4647
:1059F00003E0400004339BB20131072914D803F1BE
:105A0000824202F520421268002AF2D00B4AD2F8F4
:105A100004231042EDD003F1824202F5204200241B
:105A2000146012680543E4E7054B1B681BB9284660
:105A3000FFF7B0F938BDFFF7FBFAF8E700A0004127
:105A40007CA100412DE9F8430546904606790F46B2
:105A5000002937D0B8F1000F3FD006EB46033F4A8C
:105A600002EB83031C7A002C76D12B683C4A9342CC
:105A70003ED002F5404293423AD002F58052934222
:105A800036D0DFF8E49061224946364802F07CF8CF
:105A90006121484602F0D1F9304B06EB460203EB98
:105AA000820143F822807B684B606B79A34223D943
:105AB0002A68A30003F5A0730021D150D358013404
:105AC000E4B2F2E7284C53222146264802F05CF863
:105AD0005321204602F0B1F9BCE7234C5422214661
